:020000040800F2
:1000000090CE0020D503000889700008955C000898
:10001000857000086D230008D179000800000000F9
:1000200000000000000000000000000015030008B0
:10003000AF2800080000000071030008E572000806
:10004000EF030008EF030008EF030008EF030008C8
:10005000EF030008EF030008EF030008EF030008B8
:10006000EF030008EF030008B1280008EF030008C1
:10007000EF030008EF030008EF030008EF03000898
:10008000EF030008EF030008EF030008EF03000888
:100090007123000881230008EF030008BB28000833
:1000A000EF030008EF030008EF030008EF03000868
:1000B000D9730008EF030008EF030008EF030008FE
:1000C000EF030008EF030008EF030008EF03000848
:1000D000EF030008C1790008EF030008EF030008F0
:1000E000EF030008EF030008EF030008EF03000828
:1000F000EF030008EF030008EF030008EF03000818
:10010000EF030008EF030008EF030008EF03000807
:10011000EF030008EF030008EF030008EF030008F7
:10012000EF030008EF030008EF030008EF030008E7
:10013000EF0300080000000000000000EF030008CB
:10014000EF030008EF030008EF030008EF030008C7
:10015000EF030008EF03000895270008EF030008ED
:10016000EF030008EF030008EF030008EF030008A7
:10017000EF030008EF03000800000000000000008B
:10018000EF030008EF03000800F002F800F0B2F8F7
:100190000AA090E8000C82448344AAF10107DA45E2
:1001A00001D100F0A7F8AFF2090EBAE80F0013F082
:1001B000010F18BFFB1A43F00103184700B80000F5
:1001C00020B800000A444FF0000C10F8013B13F077
:1001D000070408BF10F8014B1D1108BF10F8015BA0
:1001E000641E05D010F8016B641E01F8016BF9D193
:1001F00013F0080F1EBF10F8014BAD1C0C1B09D1EA
:100200006D1E58BF01F801CBFAD505E014F8016B5B
:1002100001F8016B6D1EF9D59142D6D370470000ED
:100220000023002400250026103A28BF78C1FBD8FF
:10023000520728BF30C148BF0B6070476E2900F0DD
:10024000E582702900F0278466290BF0B2826529C7
:100250000BF0AF8267290BF0AC8261290BF0AB8207
:1002600003681B0A28BF41F08001692900F09282CF
:10027000642900F08F82752900F08C826F2900F0CC
:10028000B483782900F0F383E92900F04F83E4294F
:1002900000F04C83F52900F04983EF2900F0B18389
:1002A000F82900F0F2830368DB0928BF41F08001E0
:1002B000632901F01B81732901F02081E32901F0FA
:1002C0002B81F32901F03081002070471FB50BF01E
:1002D00066FA01F07FF90400002000210AF05CFCBE
:1002E000401C6060002000210AF040FCE0601FBD5F
:1002F00010B510BD01F040F91146FFF7E7FF08F017
:1003000047FE01F01DFA03B4FFF7F2FF03BC01F052
:1003100061FA00002C4B19680868B0E8F04F80F3D0
:100320000988BFF36F8F4FF0000080F3118870478A
:100330000000000008480068006880F308884FF05B
:10034000000080F3148862B661B6BFF34F8FBFF32D
:100350006F8F00DF00BF00BF08ED00E0DFF80C008A
:10036000016841F470010160704700BF88ED00E052
:10037000EFF30980BFF36F8F134B1A681EF0100F55
:1003800008BF20ED108A20E9F04F106009B44FF04B
:10039000500080F31188BFF34F8FBFF36F8F09F0C8
:1003A00023FE4FF0000080F3118809BC196808682B
:1003B000B0E8F04F1EF0100F08BFB0EC108A80F3C9
:1003C0000988BFF36F8F704728010020EFF3058085
:1003D000704700000948804709480047FEE7FEE7EC
:1003E000FEE7FEE7FEE7FEE7FEE7FEE7FEE7FEE7E5
:1003F00004480549054A064B70470000C5730008CC
:1004000089010008906E002090CE0020908E002080
:10041000908E002053EA020C00F069802DE9F04B29
:100420004FF00006002B1FBFB3FA83F503FA05F463
:1004300024FA05F65E4012BF1643B2FA82F502FABC
:1004400005F4C5F120051EBF22FA05FC44EA0C04A0
:10045000203556EA044C4FEA144418BF641C4FF090
:1004600000084FF00009904271EB030C39D30029CA
:1004700019BFB1FA81F701FA07F6B0FA80F700FA6E
:1004800007F6C7F120071EBF20FA07FC46EA0C0654
:100490002037B6FBF4FCA7EB0507103F07F01F0B56
:1004A000CBF120060CFA0BFB2CFA06F644BFB34640
:1004B0000026202FA4BF5E464FF0000B5BEA060C1F
:1004C00008BF4FF0010B19EB0B09ABFB027C48EBAB
:1004D0000608C01B06FB02CC0BFB03CC71EB0C0126
:1004E000C1E70B46024641464846BDE8F08B13B5CE
:1004F0004FF000004FF00001AFF30080BDE81C405A
:10050000704700001CB50C46064B7B4469460090C2
:10051000204600F094F904460020694600F0A2F954
:1005200020461CBD5703000010B5431C02E010F824
:10053000011B71B18107FAD14FF0013202C88C1A48
:100540008C4314EAC211F9D0C01A0A0603D0C01EA7
:1005500010BDC01A10BD0A0401D0801E10BD0902D2
:10056000FCD0401E10BD032A40F2308010F0030C76
:1005700000F0158011F8013BBCF1020F624498BFF6
:1005800011F801CB00F8013B38BF11F8013BA2F193
:10059000040298BF00F801CB38BF00F8013B11F00E
:1005A000030300F02580083AC0F0088051F8043BAE
:1005B000083A51F804CBA0E80810F5E7121D5CBF1B
:1005C00051F8043B40F8043BAFF30080D20724BF4E
:1005D00011F8013B11F801CB48BF11F8012B24BFE2
:1005E00000F8013B00F801CB48BF00F8012B704731
:1005F00010B5203AC0F00B80B1E81850203AA0E8BE
:100600001850B1E81850A0E81850BFF4F5AF5FEAF1
:10061000027C24BFB1E81850A0E8185044BF18C9A4
:1006200018C0BDE810405FEA827C24BF51F8043B4B
:1006300040F8043B08BF7047D20728BF31F8023B9F
:1006400048BF11F8012B28BF20F8023B48BF00F833
:10065000012B704702F0FF0343EA032242EA024201
:1006600000F0EABA4FF0000200B5134694469646F1
:10067000203922BFA0E80C50A0E80C50B1F12001B5
:10068000BFF4F7AF090728BFA0E80C5048BF0CC063
:100690005DF804EB890028BF40F8042B08BF7047C1
:1006A00048BF20F8022B11F0804F18BF00F8012B33
:1006B000704770477047704710B500F0DDFA00686A
:1006C00010BD10B5044600F0D7FA046010BD70B537
:1006D000044685690068C10601D5302600E0202661
:1006E000C00707D070BDD4E9012130469047206A89
:1006F000401C20626D1EF6D570BD70B5044685693C
:100700000078C00707D170BDD4E9012120209047AF
:10071000206A401C20626D1EF6D570BD09684A052E
:1007200001D540B27047C905FCD500B270470968D1
:100730004A0501D5C0B27047C905FCD580B27047E3
:1007400070B50C460546012A05D02878800600D5EC
:10075000EA69002302E0012305E05B1C934202D218
:10076000E05C0028F9D1A869E618C01AA861286AD7
:10077000184428622846FFF7AAFF04E0D5E90121C2
:1007800014F8010B9047B442F8D32846FFF7B5FFA1
:1007900070BD00002DE9F04106460024106875295F
:1007A000314616A510D0FFF7B9FF002802DA404203
:1007B00013A507E031688A0701D512A502E04907B1
:1007C00004D511A5012401E0FFF7B1FF00210A22A1
:1007D00006F1240709E0B0FBF2FCB0FBF2F302FBE8
:1007E0001C00303078541846491C0028F3D12346A9
:1007F0002A463046BDE8F04100F087BA000000000C
:100800002D0000002B00000020000000116802688D
:10081000006A530501D508700AE0D30501D50880A8
:1008200006E0130603D5C217C1E9000200E0086024
:100830000120704701694A1C02610878704700B5C1
:100840008FB0CDE901310021059105497944CDE909
:1008500003101146684600F029F90FB000BD0000F2
:10086000E5FFFFFF0A6802F8010B0A60704700000D
:100870002DE9FF5F15468A460446DFF8AC80F84450
:100880000027D8E900103E46CDE9001010E03AF804
:1008900016106A4602A800F04BFE411C07D02178D2
:1008A000890603D5E269391891420DD80744761CB0
:1008B0002078800602D5E069B84205DDAE42E6DB6D
:1008C0003AF816000028E2D1A069C01BA0612046BA
:1008D000FFF7FDFED8E90010CDE90010002017E079
:1008E0003AF818106A4602A800F022FEB0F1FF3F65
:1008F00081460BD000250DF1080B05E0D4E901215C
:100900001BF8050090476D1C4D45F7D308F1010019
:10091000B0428046E4DB206A384420622046FFF77C
:10092000ECFEBDE8FF9F0000D6AF00002DE9F041CE
:100930008046D21D22F007020025D2E90002F529E7
:1009400015A614D0011E72F1000106DA0023D0EBC7
:10095000030063EB020211A608E0D8F800108B0731
:1009600001D50FA602E0490701D50EA601251146C3
:10097000002408F1240704E000F082F930323A55EF
:10098000641C50EA0102F7D12B463246214640460C
:10099000BDE8F04100F0B9B9000000002D000000F2
:1009A0002B0000002000000030B4002100F12404DE
:1009B00008E002F00705D208303542EA4372DB084E
:1009C0006554491C52EA0305F3D10468002310A2C0
:1009D000250707D5A40600D421B1C46901230DA2BF
:1009E000641EC46130BC00F090B910B504462146C5
:1009F0001068FFF79CFE02462046BDE81040002329
:100A0000D2E7D21D22F00701D1E90023CCE7000094
:100A10000000000030000000F0B40D460188090518
:100A200002D5214C7C4402E01F4C7C440E34002152
:100A300000F1240608E002F00F071209E75D42EA20
:100A400003721B097754491C52EA0307F3D1027859
:100A50000023120704D5702D06D009B102231134EA
:100A60002246F0BC00F051B901231034F8E770B50C
:100A700004460D4621461068FFF759FE02462946F6
:100A80002046BDE870400023C6E7D21D22F00703D0
:100A9000D3E90023C0E70368126843F02003036032
:100AA0000823C3610023B7E738AE00002DE9F05FEB
:100AB000894604464FF0000ADFF874B1FB44C0F8E1
:100AC00020A02046E1688847002874D0252806D059
:100AD000D4E901219047206A401C2062F1E70026FA
:100AE0005F462046E16888472028054607DB312D10
:100AF00005D2781910F8200C08B10643F1E7B007C9
:100B000001D526F00406C4F81CA00027C4F818A0DC
:100B10002A2D09D0284607F00BFA38B304EB8708D2
:100B2000303DC8F8185019E059F8041B204604EB72
:100B300087029161E1688847012F054618D1E06975
:100B4000002820DA26F020061DE0D8F8180000EB77
:100B5000800005EB40003038C8F818002046E168F6
:100B60008847054607F0E4F90028EED1012F0AD0A6
:100B70002E2D08D12046E16888477F1C0546022FAC
:100B800046F02006C4DBA069002803DA404246F0A4
:100B90000106A061F00701D026F010066C2D0BD0E5
:100BA000682D09D04C2D39D06A2D35D0742D35D013
:100BB0007A2D33D016E038E0E1682F46204688478A
:100BC000B842054609D16C2F26D04FF48060E16809
:100BD000064320468847054604E06C2F1AD04FF4A0
:100BE000807006430DB3A5F14100192802D82035C5
:100BF00046F400664A462946204626604E46FFF7E0
:100C00001DFB80B101280BD0F61D26F0070000F176
:100C1000080956E74020E4E78020D8E70020D6E71F
:100C200006F104094DE7284652E7206ABDE8F09F27
:100C3000C8AD00004FF000020429C0F0128010F08F
:100C4000030C3FF411ADCCF1040CBCF1020F18BF42
:100C500000F8012BA8BF20F8022BA1EB0C01FFF735
:100C600003BD5FEAC17C24BF00F8012B00F8012B13
:100C700048BF00F8012B7047004870472C6E0020D9
:100C800030B5B0F10A024FEA900E71F100034EEA5E
:100C9000817EB0EB0E0061EB91014FEA101E4EEA2F
:100CA000017E10EB0E0041EB11114FEA102E4EEABF
:100CB000016E10EB0E0041EB11214FEA104E4EEA8F
:100CC000014E10EB0E0041EB1141401841F10001C3
:100CD0004FEAD00040EA41704FEAD10110EB8005A5
:100CE0004FEA810444EA907444EB01046D1944EB2B
:100CF0000404521BA3414FF0000348BF0A3200D541
:100D000030BD401C41F1000130BD2DE9F0470D46DA
:100D100099469246044600F124080168880604D5E5
:100D2000E06921F01001216000E00120A84201DD0E
:100D3000471B00E00027A1697A1902EB0900081A95
:100D4000A0612078C00602D42046FFF7C0FC002630
:100D500008E0D4E901211AF806009047206A401CF7
:100D6000761C20624E45F4DB2078C0060AD520466A
:100D7000FFF7ADFC06E0D4E9012130209047206A5E
:100D8000401C2062381EA7F10107F4DC07E0D4E91B
:100D9000012118F805009047206A401C2062281E97
:100DA000A5F10105F3DC2046FFF7A7FC207800063B
:100DB00002D50220BDE8F0870120FBE770472DE94E
:100DC000FF4F0C461E464FF0FF378BB0D2E90001B3
:100DD000DDF860800A908A46C1F30A5505B93D46A0
:100DE000002108464FF00000BAF1000F00F4400067
:100DF00005DA00EB80004FF4400101EA50004FEAB1
:100E00009059B9F1010F00DDB9460A9850EA4A003D
:100E10000ED044F61050A5F2FF3545432F14B8F11B
:100E2000000F1ED07542291E1EDDC9F100021CE014
:100E3000B8F1010F4FF0000001D0302103E0F24380
:100E400005E02154401CB042FBDB3046002200216B
:100E500021540B99C1F80880C1E900200FB0BDE80A
:100E6000F08FBD1B6D1CDEE74A4600DA694206A81A
:100E700000F0F4FB06AB93E8070003AB83E8070040
:100E800050460A9900F0ADFC8DE80700A0F500502F
:100E90001F3800900398002D0ADD42F21F014A46D8
:100EA0000844002303A90390684600F016FF09E0F8
:100EB000A0F500504A461F38002303A90390684656
:100EC00000F020FF8DE807000004000C03D04FF075
:100ED000FF30410800E01046B8F1000F03D00022B7
:100EE000009215461EE0751E05D4FFF7C9FE30328C
:100EF00062556D1EF9D5B3460122084302D0002287
:100F00007F1C04E02078302801D100227F1E002AB7
:100F1000099784D01DE0112D07DAFFF7B1FE3032BA
:100F200062556D1C50EA0102F5D1084302D00098C9
:100F3000C8B10EE00021681E05E0235C625C6354CA
:100F40002254401E491C8142F7DBAB46A81B401EC1
:100F50000990002004F80B000B98099AC0F808804B
:100F6000C0E9002B7AE711264FF0000857E72DE97A
:100F7000F04F88460446D21D22F0070191B0D1E916
:100F80000001CDE90A0106F025FD02460B98C00FCD
:100F900001D02D2007E02068810701D52B2002E039
:100FA000202101EAC000032A099001D0072A05DBAD
:100FB00003464146204600F011FB0BE120788006F5
:100FC00001D5E06900E00620B8F1650F814606D042
:100FD000B8F1660F18D0B8F1670F70D131E000207A
:100FE000B9F1110F009001DB112301E009F10103B8
:100FF0000AAA01A90CA8FFF7E2FEDDE90C700026A1
:1010000009F10105834647E001204B4600904FF06F
:1010100000470AAA01A90CA8FFF7D1FEDDE90DB02F
:101020000C995D46002610B909F101000D18B9EBC5
:10103000050003D4C0F1FF3609F10105A5EB090055
:101040002BE0B9F1010F01DA4FF001090020B9F1ED
:10105000110F0090484601DD112300E003460AAA63
:1010600001A90CA8FFF7ABFEDDE90C704D46002688
:101070008346207800070AD4AB4500DA5D4601A814
:10108000012D04DD411911F8011C302907D04F450D
:1010900002DA17F1040F04DA012082460FE06D1E18
:1010A000EEE7002F02DCED1B3E4403E0781CA84273
:1010B00000DD7D1CB81B00F1010A4FF000472078CD
:1010C000000703D4AA4501DB4FF0FF3A0021B7F136
:1010D000004F0DF143088DF8431024D002202B233C
:1010E000002F01DA7F422D230A21021EA0F1010008
:1010F00000DC5FB197FBF1FC97FBF1F201FB1C7C7C
:1011000017460CF1300C08F801CDEEE7A8F101000C
:1011100003702188090501D5452100E06521A0F172
:10112000010800F8011C09980FA9A1EB0807FF1D91
:1011300000B10120411901EBEA70A1693844081A95
:10114000401EA0612078C00602D42046FFF7BFFAF7
:10115000099828B1D4E901219047206A401C2062F7
:101160002078C00622D52046FFF7B1FA1EE0002EF7
:1011700004DBB34502DD01A8805D00E03020D4E946
:1011800001219047206A401C2062761CAAF10100D0
:101190005FEA000A0AD100F01DFAC0680168405CED
:1011A000D4E901219047206A401C2062281EA5F145
:1011B0000105DCDC07E0D4E9012118F8010B9047B8
:1011C000206A401C2062381EA7F10107F3DC20468C
:1011D000FFF793FA032011B041E600002DE9F04F2C
:1011E00004460D46D21D22F0070089B0D0E90097D1
:1011F0004846394606F0EEFB0246F80F01D02D2393
:1012000007E02068810701D52B2302E0202101EAB5
:10121000C0038DF820300BB1012000E00020032A2C
:10122000824601D0072A04DB2946204600F0D6F981
:101230003FE12078800601D40D2500E0E569C7F381
:101240000A560D2D49DA00214FEA175B08464FF088
:101250000000002F00F4400007DA00EB80004FF49C
:10126000400100EBD07001EA60008115012901DD29
:101270004FF0FF3100224FEA850CBCF1180F06D366
:101280001346ACF118004FF08052C24003E04FF417
:10129000801323FA0CF30CF10C0CBCF1200F04D3D7
:1012A000ACF1200C09FA0CF001E007FA0CF000296F
:1012B0004FF0004801DD18B90FE00ED140450CD3C6
:1012C00019EB02095F4121B9404502D19F4329EA48
:1012D0000209BBEB175F00D0761C2088000502D501
:1012E0007B48784402E07A487844193808AA3023C9
:1012F00002F80A30037C0AF10101002E0AF1020A09
:1013000053546A4602DC4FF0300101E04FF03101E6
:101310004FF001088DF8001002D0A6F2FF3603E06E
:1013200059EA470100D06B4E002D02DC21780907F5
:1013300004D54FF002082E218DF80110C44600217B
:101340000BE0C7F303433F01C35C491C6D1E02F869
:101350000830052908F1010801DA002DF1DC00212F
:101360000CE000EB1973491C1B786D1E082902F86C
:1013700008304FEA091908F1010801DA002DF0DC04
:1013800021688B0602D516E0A8F10108E04505DDCD
:1013900002EB080313F8013C302BF5D0B8F1000F35
:1013A00009DD02EB080313F8013C2E2B03D10907DA
:1013B00001D4A8F10108002D05DD3E2102F8081036
:1013C0006D1E08F10108407C002E02F8080008F1AB
:1013D000010804DA2D20764202F8080002E02B20F2
:1013E00002F808000A214FF47A70864208F10108D9
:1013F0000BDB96FBF0F3303302F8083096FBF0F38A
:1014000008F1010800FB136601E0642E0CDB642088
:1014100096FBF0F3303302F8083096FBF0F308F156
:10142000010800FB136601E00A2E06DB96FBF1F0D3
:10143000303002F8080008F1010896FBF1F001FBDA
:101440001060303002F80800A16908F1010808EBCB
:10145000050202EB0A00081AA0612078C00602D437
:101460002046FFF734F9216A08AE01EB0A0020623A
:1014700004E0D4E9012116F8010B9047BAF1010A02
:10148000F7D22078C00602D52046FFF720F96E4635
:1014900009E016F8010B3E280FD0D4E9012190474E
:1014A000206A401C2062B8F10108F2D22046FFF702
:1014B00024F909B00320BDE8F08F206A2844206297
:1014C00003E0D4E90121302090476D1EEBD3F8E70B
:1014D000C6A5000002FCFFFF10B5436913B1AFF3CE
:1014E000008001E0FFF72CF9012010BD127800F117
:1014F00024010A7000224A700122EDE711684FF0C2
:10150000FF32E9E710B5436913B1AFF3008001E0A2
:10151000FFF7AEF9012010BD128800F1240182848A
:101520000022C2840122EDE711684FF0FF32E9E7A3
:1015300070B516460C46054600F044F8036893F86B
:101540000101012806D0FF2C0FD8185D68B10120D9
:101550002C7070BDD3F807013246214603F2071301
:1015600003442846BDE8704018474FF0FF3070BD77
:10157000004870472C6E00207546FFF7F9FFAE4615
:1015800005006946534620F00700854618B020B58F
:10159000FEF72EFFBDE820404FF000064FF0000799
:1015A0004FF000084FF0000B21F00701AC46ACE80B
:1015B000C009ACE8C009ACE8C009ACE8C0098D4678
:1015C0007047000010B500F005F8001D10BD00BF09
:1015D000C9950000004870474C6E00202DE9F0418D
:1015E0001F46044603260168072A01F4006004DB55
:1015F00008B116A505E016A503E008B115A500E0A1
:1016000015A521F010002060A069C01EA0610FB1D7
:10161000401EA0612046FFF75AF84FB1D4E90121DE
:1016200038469047206A401C2062C01C206206E0B9
:10163000206AFAE7D4E9012115F8010B9047761EDC
:10164000F8D22046FFF759F8BDE8F0814E414E0030
:101650006E616E00494E4600696E66002DE9F047E6
:10166000814616468AB0354878440DC88DE80D008D
:1016700032487844801C03AC0DC884E80D0041F664
:101680009B300844372190FBF1F290FBF1F5A5F176
:10169000800501FB12041B3C02D56442012000E0DE
:1016A0000020DFF898A080460027FA44AAF1BE0A7D
:1016B0000EE0E0070AD03246684607EB47010123F7
:1016C0000AEB810100F01EFB8DE8070064107F1C0F
:1016D000002CEED1194F7F44AE3F19E0E80715D03A
:1016E00007EB04100DF1180A90E80E008AE80E00CE
:1016F000C068F04201D1981908903246012306A92A
:1017000003A800F0FFFA03AB83E807006D10641C28
:10171000002DE3D14FF0010332466946B8F1000FC6
:1017200003A802D000F0D9FA01E000F0EBFAC9E911
:101730000001C9F808200AB0BDE8F087D0A2000077
:1017400010B50446AFF300802046BDE81040FEF718
:10175000DABD00004FF0013C50F8042B51F8043B77
:101760009A4221D1A2EB0C03934313EACC1317D175
:1017700050F8042B51F8043B9A4215D1A2EB0C030C
:10178000934313EACC130BD150F8042B51F8043BCC
:101790009A4209D1A2EB0C03934313EACC13DBD09A
:1017A0004FF00000704700BFD01A01BAB1FA81F1C2
:1017B00001F0180122FA01F0CB40C1F12001DBB2A7
:1017C000C0B2C01A2CFA01F3D11A914311EAC31125
:1017D000E6D1704701491820ABBEFEE726000200A3
:1017E00070475FEA400C08BF91F0000F4FEA8C236E
:1017F0004FEAC12243EA51514FEA1C5018BF00F58D
:10180000F0404FEA300018BF41F000415FEA6C5CE5
:1018100000F02980BCF1FF3F08BF40F080407047D6
:10182000130C06BF12044FF0100C4FF0000C130EF7
:1018300004BF12020CF1080C130F04BF12010CF1CB
:10184000040C930F04BF92000CF1020CD30F04BFE1
:1018500052000CF1010C11464FF00002A0F11F00E4
:10186000A0EB0C00704711F0004F08BF704731F03B
:1018700000413FF4D5AF0B0C06BF09044FF0100C2C
:101880004FF0000C0B0E04BF09020CF1080C0B0FFB
:1018900004BF09010CF1040C8B0F04BF89000CF18B
:1018A000020CCB0F04BF49000CF1010CCCF120035A
:1018B000A0EB0C0022FA03F302FA0CF241EA030156
:1018C00000F10100704720F07F4C80EA030023F014
:1018D0007F47ACEB070303F57C5300F0004003F1B6
:1018E000FF032DE980494FEA154B09B44FEA144331
:1018F00025EA0B4E24EA03480FF2042606EB1327D1
:1019000049083E785FEA320203FB0667C7F5000725
:1019100007FB06F64FEA54374FEAD64606F10206B1
:1019200007FB066CCCF1005C4FEA1C472CEA074C25
:1019300007FB06F40CFB06F504EB15464FEA96167A
:1019400034BF00204FF000404FEAD13706FB07FCC0
:101950004FEA1C4C0CFB0BF7D21B03FB0CF761EBA3
:1019600007010CFB0EF7B0EB074072EB17420CFBC4
:1019700008F734BFA2EB0742B2EB074261EB174115
:101980004FEA0C444FEA910706FB07FC4FEA1C4C58
:101990000CFB0BF7B0EBC74072EB573203FB0CF7B5
:1019A00034BFA2EBC742B2EBC74261EB57310CFB2D
:1019B0000EF7B0EBC70072EB57720CFB08F734BFA1
:1019C000A2EBC702B2EBC70261EB5771039F4FEA6C
:1019D000816141EA921104EBCC044FEAD1374FEA1E
:1019E000826206FB07FC42EA90124FEA80604FEAEF
:1019F0001C4C0CFB0BF7D21B03FB0CF761EB070134
:101A00000CFB0EF7B0EB074072EB17420CFB08F72C
:101A100034BFA2EB0742B2EB074261EB17414FEA3A
:101A20008C554FEA910704EB9C2406FB07FC4FEA18
:101A30001C4C0CFB0BF7B0EBC74072EB573203FBAF
:101A40000CF734BFA2EBC742B2EBC74261EB573190
:101A50000CFB0EF7B0EBC70072EB57720CFB08F7EC
:101A600034BFA2EBC702B2EBC70261EB577115EBB3
:101A70004C254FEA816141EA92114FEA82624FEAB6
:101A8000D13742EA901206FB07FC44F100044FEA0A
:101A900080604FEA1C4C0CFB0BF7D21B03FB0CF7CE
:101AA00061EB07010CFB0EF7B0EB074072EB17423E
:101AB0000CFB08F734BFA2EB0742B2EB074261EB25
:101AC000174115EB1C154FEA813141EA92414FEA6B
:101AD000823242EA90424FEA80304FEA0C7644F17B
:101AE000000448EA03434EEA0B484FF0000EB2EB05
:101AF000080C71EB030724BF624639464EEB0E0E0D
:101B00004FF0000B0018524149414BEB0B0BB2EB6D
:101B1000080C71EB03077BF1000B24BF62463946CA
:101B20004EEB0E0E4FF0000B0018524149414BEBAB
:101B30000B0BB2EB080C71EB03077BF1000B24BF1E
:101B4000624639464EEB0E0E51EA020718BF46F0C8
:101B5000010616EB0E7655F1000254F1000103D593
:101B6000BDE88901BDE80088BDE88901BDE80048FD
:101B7000B619524141EB0101A3F101037047808086
:101B80007F7E7D7C7B7A79787776767574737271D7
:101B900071706F6E6E6D6C6C6B6A6A69686867668F
:101BA00066656464636362616160605F5F5E5E5D21
:101BB0005D5C5C5B5B5A5A59595858575756565595
:101BC00055555454535352525251515050504F4FF7
:101BD0004F4E4E4D4D4D4C4C4C4B4B4B4A4A4A4947
:101BE000494948484847474747464646454545448A
:101BF0004444444343434342424242414141002B17
:101C00009C4630D477002BD01CB54FEA370703B47D
:101C10004FF010004FF01001BAF1000F06D0BCF1E8
:101C2000000FDCBF40F0080040F008014FF000005A
:101C30000FBCBDE810400BF1010BBBF1010F08BF59
:101C40005FEA170722BF12F1010211F101014FF003
:101C5000004143F1000300F0004043EA00007047F8
:101C6000F9D35708D0E746EA064613F1400F4FEA8A
:101C700016461FDD13F1200FDFBF16430A46002171
:101C800020335B42BED0C3F1200746EA064602FA83
:101C900007F74FEA164646EA0706C3F1200722FA7D
:101CA00003F201FA07F721FA03F14FF0000342EAC9
:101CB0000702A7E746EA020646EA06464FEA164644
:101CC00046EA0106BCBF46EA0646360C4FF0000362
:101CD0004FF000024FF0000194E72DE9804C9A4646
:101CE000934670B491E8380007C831EA400C48BF09
:101CF00034EA430C03D5FFF7E6FDFFF780FFF0BCA5
:101D0000BDE8008C2DE9804C9A46934670B491E86A
:101D1000380007C810F0804F08BF13F0804F03D180
:101D200000F005F8FFF76BFFF0BCBDE8008C20F079
:101D30007F4780EA030023F07F4C07EB0C03A3F5F9
:101D40007C5300F00040A3F1FE0392F0000F00F07E
:101D5000B38095F0000F00F077802DE901494FEA3C
:101D600011404FEA144621EA004800FB06FC24EA31
:101D7000064708FB06F607FB08F800FB07F718EB19
:101D800006484CEB164C4FEA124B18EB07484FEA4B
:101D900015464CEB174022EA0B4E0BFB06FC25EADE
:101DA00006470EFB06F607FB0EFE0BFB07F71EEBC6
:101DB000064E4CEB164C4FF000061EEB074E4CEB5C
:101DC000174B18EB0B0840F1000018EB0E0B58EB0B
:101DD000000840F100008F1A4FF000013CBFC943DA
:101DE000661B14BFB5EB040C00213CBFC943F61BB6
:101DF0004FEA17444EEA8E0E27EA04454FEA1C4785
:101E000004FB07622CEA074C05FB07F70CFB05F601
:101E100004FB0CFC16EB074642EB174216EB0C4694
:101E200042EB1C421BEB060658EB0202414146EA1C
:101E30009E0601D5BDE80189B619524141EB010169
:101E4000A3F10103BDE801894FEA14454FEA1147A8
:101E500024EA054621EA074C05FB07F406FB07F7D1
:101E60000CFB06F105FB0CFC11EB074144EB17449E
:101E70004FEA124711EB0C4144EB1C4422EA074C99
:101E800005FB07F206FB07F70CFB06F605FB0CFC4F
:101E900016EB074642EB174216EB0C4642EB1C458D
:101EA0006A1854F1000148BF7047B619524141EB1E
:101EB0000101A3F10103704795F0000F37D04FEAFD
:101EC00011424FEA144721EA024624EA074C02FB7A
:101ED00007F106FB07F70CFB06F402FB0CFC14EB06
:101EE000074441EB17414FEA154714EB0C4441EB13
:101EF0001C4125EA074C02FB07F506FB07F70CFB24
:101F000006F602FB0CFC16EB074645EB174516EBF5
:101F10000C4645EB1C42121951F1000148BF7047B5
:101F2000B619524141EB0101A3F1010370474FEA99
:101F300014454FEA114724EA054621EA074C05FB00
:101F400007F106FB07F70CFB06F24FF0000605FB56
:101F50000CFC12EB074241EB174112EB0C4251EB28
:101F60001C4148BF7047921841EB0101A3F10103E6
:101F700070470000B7EE000A80ED000A9FED060AE8
:101F800080ED010A9FED040A80ED020A9FED020A2E
:101F900080ED030A70470000000000002DE9F041C9
:101FA0002DED028B0746B0EE408A0C4615461E46C4
:101FB0002748007838B3D6ED024AB0EE644AD6ED31
:101FC000014AF0EE643AD6ED004AB0EE643AD5ED3F
:101FD000024AF0EE642AD5ED014AB0EE642AD5ED4E
:101FE000004AF0EE641AD4ED024AB0EE641AD4ED61
:101FF000014AF0EE640AD4ED004AB0EE640A3846B5
:1020000004F0ECFB20E095ED023AF0EE432A95ED6A
:10201000013AB0EE432A95ED003AF0EE431A94ED02
:10202000023AB0EE431A94ED013AF0EE430A94ED11
:10203000003AB0EE430A9FED074ADFED063A9FED06
:10204000053A384604F0CAFBBDEC028BBDE8F081CE
:10205000730000200000000070B504464FF6FF75C5
:1020600006F0BAFC6C2006F081FC06F0FBFCE0B246
:1020700006F07CFC06F0F6FC06F0AEFC6D2006F0E7
:1020800075FC06F0EFFC012006F042FC054600203E
:1020900006F03EFC40EA052506F0C4FC284670BD6B
:1020A00010B501221021024801F0D0FF10BD000040
:1020B0000000024010B500221021024801F0C6FFC6
:1020C00010BD0000000002407047000010B5012262
:1020D0001146024801F0BAFF10BD000000040240A2
:1020E00010B500220121024801F0B0FF10BD000030
:1020F00000040240704710B50446204606F064FF15
:1021000010BD10B50446204606F06AFA10BD10B5A1
:102110000024FFF7D9FFFFF7EDFF05F0C1FF10B175
:1021200044F0800402E005F00BFF044306F0F0F9F0
:1021300010B144F0400402E006F070F90443204678
:1021400010BD00002DE9FC4105460E461746002053
:1021500000900190FFF7AEFF922000F0EDF806220C
:102160006946122000F0C8F8FFF79AFF9DF80100B9
:10217000000200B29DF8001040EA010400EE104A8F
:10218000B8EEC00A5848D0ED000A20EE200A5748A1
:10219000D0ED000A20EE200A86ED000A9DF803002B
:1021A000000200B29DF8021040EA010400EE104A5D
:1021B000B8EEC00A4C48D0ED000A20EE200A4B4889
:1021C000D0ED000A20EE200A86ED010A9DF80500F8
:1021D000000200B29DF8041040EA010400EE104A2B
:1021E000B8EEC00A4048D0ED000A20EE200A3F4871
:1021F000D0ED000A20EE200A86ED020AFFF770FFFC
:1022000008226946002000F077F8FFF75FFF9DF88D
:1022100000000F2841D19DF80300000200B29DF894
:10222000021040EA01043248D0ED000A00EE104AE4
:10223000B8EEC00A2F4890ED001A50EE010AC5ED25
:10224000000A9DF80500000200B29DF8041040EA63
:1022500001042748D0ED010A00EE104AB8EEC00A8A
:10226000244890ED001A50EE010AC5ED010A9DF8D0
:102270000700000200B29DF8061040EA01041C4865
:10228000D0ED020A00EE104AB8EEC00A194890EDEF
:10229000001A50EE010AC5ED020AFFF70BFFA2205B
:1022A00000F04AF802226946222000F025F8FFF7E4
:1022B000F7FE9DF80000C0009DF8011040EA61148F
:1022C000B4F5806F02DBA4F5006004B200EE104AA2
:1022D000F8EEC00AB4EE001AB3EE070A00EE810A67
:1022E00087ED000ABDE8FC818C0000209C000020E6
:1022F000980200209000002070B506460C46154656
:1023000046F0800000F018F806E0552000F014F8C0
:102310002070641C681EC5B2002DF6D170BD70B56A
:1023200004460D4644F0800000F006F8552000F009
:1023300003F8287070BD000001B582B04FF47A70C8
:10234000012301AA02A90090024802F0B3FF9DF800
:1023500004000EBDC809002070B505460C4628468D
:10236000FFF7EAFF2046FFF7E7FF70BD00BFFEE77B
:1023700010B5024800F028FF10BD00004C090020F5
:1023800010B5024800F020FF10BD00004C090020ED
:1023900010B58AB004460C492068884211D101204A
:1023A0000890002005900490009001900290039006
:1023B0000690012007900E2009906946034800F01E
:1023C000B3FD0AB010BD0000006400404C090020BD
:1023D00010B50446204601F064F90221204600F0C1
:1023E000E3FC2046FFF7D4FF10BD000010B5024803
:1023F000FFF7EEFF10BD00004C09002070B58AB059
:1024000006460D46144604950020069007900820C5
:10241000089020788DF8080060788DF80900A07881
:102420008DF80A00E0788DF80B0020798DF80C000B
:1024300060798DF80D00A0798DF80E00E0798DF8A7
:102440000F0001AB02AA04A9304600F0C2FC18B983
:1024500001200449087002E00220024908700AB015
:1024600070BD00007400002030B52DED068B83B0E8
:10247000002001900290FFF71DFE9220FFF75CFF05
:10248000062201A91220FFF737FFFFF709FE9DF88A
:102490000500000200B29DF8041040EA010400EEBD
:1024A000104AB8EEC00AA948D0ED000A20EE200A72
:1024B000A74880ED000A9DF80700000200B29DF8D1
:1024C000061040EA010400EE104AB8EEC00A9F4828
:1024D000D0ED000A20EE200A9D4880ED010A9DF80B
:1024E0000900000200B29DF8081040EA010400EE65
:1024F000104AB8EEC00A9548D0ED000A20EE200A36
:10250000934880ED020AD0ED000A60EEA00A90ED3B
:10251000011AD0ED011A41EE210A90ED021AD0ED18
:10252000021A41EE210AB0EE600A05F0CEFCB0EED0
:10253000408AFFF7D5FD082201A90020FFF7DCFE45
:10254000FFF7C4FD9DF804000F283BD19DF807005C
:10255000000200B29DF8061040EA010400EE104AA5
:10256000B8EEC00A7B48D0ED000A20EE200A7A4877
:1025700080ED000A9DF80900000200B29DF80810E5
:1025800040EA010400EE104AB8EEC00A7148D0EDEE
:10259000000A20EE200A704880ED010A9DF80B0029
:1025A000000200B29DF80A1040EA010400EE104A51
:1025B000B8EEC00A6748D0ED000A20EE200A66484F
:1025C00080ED020A6548007830B9654880ED008AE0
:1025D0000120624908702BE0614890ED000A38EE56
:1025E000400A10EE101A084609F068F841EC1A0B80
:1025F000B0EE4A0AF0EE6A0A05F020FCB0EE409A0E
:10260000F0EE609A9FED570B53EC102B51EC190B29
:1026100008F02EFD0CD8524890ED000ADFED530A69
:1026200020EE200ADFED520A08EE200A80ED000AB3
:1026300000254FE04F48405D68B9474800EB8500F2
:1026400090ED000A4C4800EB850080ED000A012067
:10265000484948553CE0484800EB850090ED000AA9
:102660003D4800EB8500D0ED000A30EE600A10EE28
:10267000101A084609F022F841EC1A0BB0EE4A0A8B
:10268000F0EE6A0A05F0DAFBB0EE409AF0EE609ADE
:102690009FED3A0B53EC102B51EC190B08F0E8FCB2
:1026A00016D8354800EB850090ED000ADFED2F0AC3
:1026B00020EE200A284800EB8500D0ED000A9FEDAF
:1026C0002C1A00EE810A2C4800EB850080ED000AF0
:1026D000681CC5B2032DADDBFFF7ECFCA220FFF7B1
:1026E0002BFE022201A92220FFF706FEFFF7D8FCED
:1026F0009DF80400C0009DF8051040EA6114B4F58F
:10270000806F02DBA4F5006004B200EE104AF8EE20
:10271000C00AB4EE001AB3EE070A00EE810A1948A7
:1027200080ED000A0E4890ED000ADFED170A80EEFA
:10273000801A164880ED001A15480088401C00B227
:102740001349088003B0BDEC068B30BD8C0000201F
:1027500080020020900000208C020020C800002091
:1027600098000020000000000000E03F72F97F3F69
:1027700000C0D138C90000209802002000000040AD
:102780003333C33F94000020C3F51C419C0000205C
:10279000A200002010B5024801F024F810BD00008E
:1027A000240B00200146087810381823B0FBF3F200
:1027B0000848805CC865032A05D908686FF30900DA
:1027C000001D886503E008686FF309008865886D5F
:1027D0007047000038B80008014600208A6A8B69FB
:1027E000CBB932B1012A0DD0022A03D0032A10D16D
:1027F0000EE000BFCB6A03F08073B3F1807F00D19D
:10280000012007E0CB6AB3F1C07F00D1012001E0D5
:1028100000E000BF34E08B69B3F5005F1AD132B13C
:10282000012A07D0022A03D0032A11D10AE000BFEF
:1028300001200EE0CB6A03F08073B3F1807F00D1FA
:10284000012006E0CB6AB3F1C07F00D1012000E097
:1028500000BF15E032B1012A05D0022A04D0032AB4
:102860000CD103E000BF00BF012008E0CB6A03F0F9
:102870008073B3F1807F00D1012000E000BF00BF72
:10288000704730B50468246824F4802405682C60FF
:10289000046863608468402C04D10468A260046802
:1028A000E16003E00468A1600468E26030BD704745
:1028B00010B5102001F0BAFA10BD10B5202001F0BB
:1028C000B5FA802001F0B2FA10BD72B600BFFEE783
:1028D00010B5002201B909E0012901D10A0205E081
:1028E000022901D10A0201E04FF440720E4B1B682D
:1028F00023F440730C4C236023461B68134323606E
:1029000023461B6823F0F803236023461B68022438
:1029100044EAC0042343044C236023461B6843F469
:102920008033236010BD0000103C02401C4800684A
:1029300000F40070B0B11A48006820F40070184923
:10294000086000BF0846006840F400600860084660
:10295000006820F40060086000BF0846006840F48A
:10296000007008600E48006800F48060B0B10C4848
:10297000006820F480600A49086000BF08460068CB
:1029800040F4805008600846006820F480500860D9
:1029900000BF0846006840F480600860704700008F
:1029A000003C02400A4A126822F44072084B1A6046
:1029B0001A46126842F004021A601A4612684FF46E
:1029C000803343EA00231A43014B1A60704700002A
:1029D000103C0240074A126822F44072054B1A600C
:1029E0001A4612681A601A46126842F001021A600A
:1029F00001707047103C024010B50D49096821F480
:102A000040710B4C21602146096841F440712160FE
:102A10002146096841F001012160026000BF00BF4A
:102A200000BFBFF36F8F00BF00BF00BF436010BD8A
:102A3000103C0240084A126822F44072064B1A60A9
:102A40001A46126842F480721A601A46126842F0FE
:102A500001021A6001807047103C0240084A126867
:102A600022F44072064B1A601A46126842F4007251
:102A70001A601A46126842F001021A60016070473B
:102A8000103C02402348006800F0100040B122488A
:102A9000C06940F010002049C86110201D4908603D
:102AA0001C48006800F0200040B11B48C06940F09D
:102AB00008001949C86120201649086015480068B7
:102AC00000F0400040B11448C06940F004001249D1
:102AD000C86140200F4908600E48006800F080007F
:102AE00040B10D48C06940F002000B49C861802028
:102AF000084908600748006800F0020040B1064835
:102B0000C06940F020000449C86102200149086002
:102B1000704700000C3C0240CC0B002070B504460E
:102B2000002500201449C86101F096FA054609E025
:102B3000601C38B124B101F08FFA401BA04201D9CA
:102B4000032070BD0D48006800F480300028EFD1EC
:102B50000A48006800F0010010B101200749086030
:102B60000648006800F0F20018B1FFF78BFF012063
:102B7000E7E70020E5E70000CC0B00200C3C02401A
:102B80000146074A1068B0F1A53F02D04FF0FF3070
:102B9000704792ED010A81ED000A0020F8E700007D
:102BA0000000020802460B4610490868B0F1A53F34
:102BB00002D04FF0FF30704791ED010A82ED000A1C
:102BC00091ED020A82ED010A91ED030A82ED020AFB
:102BD00091ED040A83ED000A91ED050A83ED010AE7
:102BE00091ED060A83ED020A0020E4E700000108E7
:102BF00003460A460C490868B0F1A53F02D04FF0E1
:102C0000FF30704791ED010A83ED000A91ED020A51
:102C100082ED000A91ED030A82ED010A91ED040AAA
:102C200082ED020A0020ECE70000040800B52DED5B
:102C3000028B87B0B0EE408A0020019005200490FE
:102C400000200290022006900120059001F056F825
:102C500001A902A800F0A6FF4FF0A5320023094900
:102C6000022000F0FFFF18EE102A00230549091D7D
:102C7000022000F0F7FF00F0EBFF07B0BDEC028B85
:102C800000BD000000000208F0B58FB005460E46FA
:102C90000020099004200C9000200A9002200E9041
:102CA00001200D9001F02AF809A90AA800F07AFF86
:102CB0004FF0A53001902868029068680390A868DA
:102CC00004903068059070680690B0680790002402
:102CD0000CE001A850F82470074800EB84013A4644
:102CE0000023022000F0BEFF601CC4B2202CF0D3F1
:102CF00000F0AEFF0FB0F0BD0000010870B52DED83
:102D0000028B8CB0B0EE408A05460020069006206B
:102D100009900020079002200B9001200A9000F0FB
:102D2000EDFF06A907A800F03DFF4FF0A530009089
:102D30008DED018A2868029068680390A868049065
:102D400000240BE05DF82460084800EB8401324663
:102D50000023022000F086FF601CC4B2182CF1D3BF
:102D600000F076FF0CB0BDEC028B70BD00000408D3
:102D70000CB58DED010ACDED000A019901700199A4
:102D8000090A41700199090C81700199090EC170FD
:102D9000009901710099090A41710099090C81712A
:102DA0000099090EC1710CBD10B5024692F8203091
:102DB000012B01D0022B06D110684069084314682A
:102DC0006061002010BD506A40F4802050620120F4
:102DD000F8E7F0B504460D461E4694F820702068CA
:102DE0008368A86800B900E000BF012F01D0022F5E
:102DF0007CD103F0806030B903F0006018B903F0B3
:102E00008050002873D0C3F30161022905D9606A9C
:102E100040F4000060620120F0BD01208840306075
:102E2000A86860B9B5F800C0E86840EA4C5C206862
:102E300000F5C07000EB0110C0F800C00FE0D5E94C
:102E400001C040EACC00D5F80CC040EA0C00D4F830
:102E500000C00CF5C07C0CEB011CCCF80000D5F8D0
:102E600010C0206800F5C07000EB0110C0F804C06D
:102E7000287D01280ED1206800F5C07000EB0110FC
:102E8000406840F4807C206800F5C07000EB0110C1
:102E9000C0F804C0D079000692F806C040EA0C40A1
:102EA00092F805C040EA0C2C10794CEA000C20681E
:102EB00000F5C07000EB0110C0F80CC0D07800061F
:102EC00092F802C040EA0C4092F801C040EA0C209F
:102ED00092F800C040EA0C00D4F800C00CF5C07CA9
:102EE0000CEB011CCCF80800206801E016E00FE0B4
:102EF00000F5C07000EB0110006840F0010C206884
:102F000000F5C07000EB0110C0F800C0002083E79E
:102F1000606A40F40010606201207DE7606A40F45E
:102F200080206062012077E7F0B504460A462168F8
:102F300094F82050012D01D0022D7ED1424901F597
:102F40000071086840F001000860086820F47C50B7
:102F500008600868566A40EA06200860107D00F0A4
:102F60001F06012000FA06F3C8699843C861A1F55D
:102F70000071D069C8B9D1F80C029843C1F80C02AD
:102F8000908880B2968940EA064601F5107057692C
:102F900040F83760108880B2168940EA064601F58D
:102FA0001070576900EBC7004660D069012819D13D
:102FB000D1F80C021843C1F80C02908880B2168830
:102FC00040EA064601F51070576940F8376090896D
:102FD00080B2168940EA064601F51070576900EB89
:102FE000C7004660906928B9D1F804029843C1F837
:102FF000040204E0D1F804021843C1F80402106985
:1030000028B9D1F814029843C1F8140204E0D1F8A9
:1030100014021843C1F81402106A012804D1D1F82F
:103020001C021843C1F81C02D1F8000220F0010074
:10303000C1F800020020F0BDFFE7606A40F4802084
:1030400060620120F7E7000000640040704770B53F
:10305000044694F82050012D01D0022D7DD151B9A4
:103060002068C06800F0030080B9606A40F4001076
:103070006062012070BD2068006900F0030028B97B
:10308000606A40F4001060620120F3E7206800F5F8
:10309000D87000EB0110006800F0040090609068A8
:1030A00040B9206800F5D87000EB01100068400DB1
:1030B000106007E0206800F5D87000EB0110006890
:1030C000C0085060206800F5D87000EB011000685F
:1030D00000F00200D060206800F5D87000EB01100D
:1030E000406800F00F001061206800F5D87000EB18
:1030F0000110406800F47F40000A9061206800F5EC
:10310000D87000EB01104068000C5061206800F599
:10311000D87000EB011080681870206800F5D87036
:1031200000EB0110806800F47F40000A58702068AE
:1031300000F5D87000EB0110806800F47F00000CEF
:103140009870206800F5D87000EB01108068000EC0
:10315000D870206800F5D87000E02FE000EB011077
:10316000C0681871206800F5D87000EB0110C068C5
:1031700000F47F40000A5871206800F5D87000EB19
:103180000110C06800F47F00000C9871206800F501
:10319000D87000EB0110C068000ED87131B92068FA
:1031A000C06840F020002668F06005E020680069F3
:1031B00040F020002668306100205BE7606A40F440
:1031C00080206062012055E72DE9F05F044600256C
:1031D000206846692068D0F80490206887682068D5
:1031E000D0F80CA02068D0F810B02068D0F8188073
:1031F00006F00100002855D007F00100C0B1012001
:103200002168886007F0020018B1204600F079FAC2
:103210000EE007F0040010B145F4006508E007F087
:10322000080010B145F4805502E0204600F068FA2D
:1032300007F48070C8B14FF480702168886007F48B
:10324000007018B1204600F05EFA0EE007F48060CE
:1032500010B145F4005508E007F4006010B145F4E2
:10326000804502E0204600F04DFA07F48030C8B1F6
:103270004FF480302168886007F4003018B1204690
:1032800000F043FA0EE007F4802010B145F4004549
:1032900008E007F4002010B145F4803502E0204634
:1032A00000F032FA06F0080038B10AF0100020B140
:1032B00045F4007510202168C86006F0040040B194
:1032C0000AF0080028B108202168C860204600F0F4
:1032D000B1F906F0020038B12068C06800F00300C0
:1032E00010B1204600F0A8F906F0400038B10BF00C
:1032F000100020B145F4806510202168086106F0B7
:10330000200040B10BF0080028B1082021680861B6
:10331000204600F0C3F906F0100038B120680069BB
:1033200000F0030010B1204600F0B9F906F40030B7
:1033300040B109F0100028B11020216848602046F3
:1033400000F0AEF906F4803040B109F0080028B171
:10335000082021684860204600F0D8F906F40040B3
:1033600088B309F0040078B306F4807020B108F047
:10337000010008B145F0010506F4007020B108F025
:10338000020008B145F0020506F4806020B108F0A3
:10339000040008B145F0040506F40060A0B108F08F
:1033A000700088B108F07000402817D006DC1028A3
:1033B0000BD020280CD0302819D10CE0502810D088
:1033C000602814D110E01DE019E045F008050FE079
:1033D00045F010050CE045F0200509E045F04005FA
:1033E00006E045F0800503E045F4807500E000BF8D
:1033F00000BF2068806920F0700021688861042087
:10340000216848602DB1606A284360622046FFF75A
:103410001DFEBDE8F09F70B504460CB9012070BDDB
:1034200094F8200010B9204600F0B0F82068006839
:1034300040F001002168086000F00EFE05460DE036
:1034400000F00AFE401B0A2808D9606A40F40030E8
:103450006062052084F820000120E0E720684068D1
:1034600000F001000028EBD02068006820F0020086
:103470002168086000F0F0FD05460DE000F0ECFD6D
:10348000401B0A2808D9606A40F4003060620520B9
:1034900084F820000120C2E72068406800F00200A4
:1034A0000028EBD1207E012806D12068006840F07A
:1034B00080002168086005E02068006820F0800036
:1034C00021680860607E012806D12068006840F00D
:1034D00040002168086005E02068006820F0400096
:1034E00021680860A07E012806D12068006840F0AD
:1034F00020002168086005E02068006820F02000B6
:1035000021680860E07E012806D12068006820F06C
:1035100010002168086005E02068006840F0100095
:1035200021680860207F012806D12068006840F0EB
:1035300008002168086005E02068006820F00800A5
:1035400021680860607F012806D12068006840F08B
:1035500004002168086005E02068006820F004008D
:1035600021680860D4E902010843216908436169C0
:1035700008436168491E08432168C86100206062F1
:10358000012084F82000002049E7000010B586B033
:103590000446142101A8FDF765F8234920688842F4
:1035A00040D100BF002000902048006840F000702B
:1035B0001E4908600846006800F00070009000BFD7
:1035C00000BF00BF0020009018481038006840F08D
:1035D00001001649103908600846006800F0010033
:1035E000009000BF00BF4FF4C05001900220029035
:1035F00000200390032004900920059001A90C48A5
:1036000000F022FC00220521142001F061F91420B1
:1036100001F04EF900220521152001F059F915207D
:1036200001F046F906B010BD006400404038024089
:10363000000002407047000010B58AB004461149EE
:10364000206888421BD108AB01AA00210E48FFF771
:10365000FEFC0198B0F5807F10D19DF820000B4949
:1036600008709DF821000A4908709DF82200094958
:1036700008709DF823000849087000BF00BF0AB019
:1036800010BD0000006400404C09002070000020C4
:103690007100002072000020730000207047704706
:1036A000704770B5044694F82000012822D102200A
:1036B00084F820002068006820F00100216808607C
:1036C00000F0CAFC05460DE000F0C6FC401B0A28CD
:1036D00008D9606A40F400306062052084F8200058
:1036E000012070BD2068406800F001000028EBD187
:1036F0006062F6E7606A40F4002060620120F0E753
:10370000704770477047704770477047704770B593
:103710000446A56D00F0A0FC064694F8350002288A
:1037200008D08020606500BF002084F8340000BF0E
:10373000012070BD2068006820F016002168086034
:103740002068406920F0800021684861206C08B939
:10375000A06C28B12068006820F00800216808608B
:103760002068006820F001002168086010E000F087
:1037700073FC801B05280BD920206065032084F88A
:10378000350000BF002084F8340000BF0320D0E7DC
:103790002068006800F001000028E8D194F85C106F
:1037A0003F208840A860012084F8350000BF002039
:1037B00084F8340000BF00BFBBE7014691F8350034
:1037C000022803D08020486501207047052081F839
:1037D00035000868006820F001000A6810600020C9
:1037E000F3E70000F8B50446002000908C4800681C
:1037F0004FF41651B0FBF1F7A56D2E6894F85C10EC
:1038000008208840304098B12068006800F004002B
:1038100070B12068006820F004002168086094F806
:103820005C1008208840A860606D40F00100606571
:1038300094F85C1001208840304068B120684069ED
:1038400000F0800040B194F85C1001208840A8602E
:10385000606D40F00200606594F85C1004208840C0
:10386000304068B12068006800F0020040B194F870
:103870005C1004208840A860606D40F00400606522
:1038800094F85C1010208840304078B320680068BD
:1038900000F0080050B394F85C1010208840A86035
:1038A0002068006800F4802080B12068006800F47F
:1038B000002028B9206CC8B12046216C884715E04B
:1038C000A06C98B12046A16C88470FE02068006882
:1038D00000F4807028B92068006820F00800216892
:1038E0000860206C10B12046216C884794F85C1069
:1038F000202088403040002865D02068006800F013
:10390000100000285FD094F85C1020208840A86048
:1039100094F83500052828D12068006820F01600AA
:10392000216808602068406920F0800021684861B3
:10393000206C08B9A06C28B12068006820F008004D
:103940002168086094F85C103F208840A86001203E
:1039500084F8350000BF002084F8340000BF206DDB
:1039600010B12046216D8847F8BD2068006800F43A
:10397000802080B12068006800F4002028B9606CC5
:1039800010B12046616C88471DE0E06BD8B120463D
:10399000E16B884717E02068006800F4807068B920
:1039A0002068006820F0100021680860012084F879
:1039B000350000BF002084F8340000BFE06B10B178
:1039C0002046E16B8847606D38B3606D00F0010000
:1039D000F0B1052084F835002068006820F001006F
:1039E0002168086000BF0098401C0090B84200D9D0
:1039F00005E02068006800F001000028F3D100BF56
:103A0000012084F8350000BF002084F8340000BF96
:103A1000E06C10B12046E16C884700BFA4E70000CD
:103A2000240100202DE9F0410446002500F014FB9C
:103A3000074614B90120BDE8F081606A00B100BFFB
:103A4000022084F8350000BF002084F8340000BF55
:103A50002068006820F00100216808600AE000F09A
:103A6000FBFAC01B052805D920206065032084F8D7
:103A70003500E0E72068006800F001000028EED182
:103A80002068056821480540D4E901010843E16840
:103A900008432169084361690843A1690843E16952
:103AA0000843216A08430543606A042803D1D4E926
:103AB0000B0108430543206805602068456925F02F
:103AC0000705606A0543606A04280DD1A06A0543B2
:103AD000E06A48B12046FEF77FFE28B140206065CD
:103AE000012084F83500A6E7206845612046FEF7EE
:103AF00059FE064694F85C103F208840B0600020D4
:103B00006065012084F83500002094E73F8010F0C4
:103B10002DE9F04704460D4616461F464FF00008B3
:103B2000D4F8589000BF94F83400012802D1022044
:103B3000BDE8F087012084F8340000BF94F8350018
:103B4000012825D1022084F83500002060653B461D
:103B5000324629462046FEF794FE94F85C103F203A
:103B60008840C9F808002068006840F01600216805
:103B70000860206C28B12068006840F008002168C7
:103B800008602068006840F001002168086006E0D5
:103B900000BF002084F8340000BF4FF00208404608
:103BA000C6E700002DE9F04104460E460127002536
:103BB00000BF2548007E012802D10220BDE8F08127
:103BC00001202149087600BF4CF25030FEF7A6FFD5
:103BD0000746002F31D1401E3060206801280FD1E8
:103BE000207C6168FEF7DEFE4CF25030FEF796FF57
:103BF00007461648006820F00400144908601AE0DF
:103C0000A56812E0217C2846FEF762FE4CF2503097
:103C1000FEF784FF07460D48006820F0FA000B49C4
:103C200008600FB1356005E06D1CD4E9021008444E
:103C3000A842E7D800BFFEF779FE00BF0020024986
:103C4000087600BF3846B9E7CC0B0020103C024094
:103C50000348006840F000400149086000207047B8
:103C6000103C02402DE9F04106460F4614461D4621
:103C70004FF0010800BF1F48007E012802D102203A
:103C8000BDE8F08101201B49087600BF4CF250309E
:103C9000FEF744FF8046B8F1000F23D126B9E1B208
:103CA0003846FEF797FE12E0012E04D1A1B2384645
:103CB000FEF7C0FE0BE0022E04D121463846FEF787
:103CC000CDFE04E022462B463846FEF795FE4CF228
:103CD0005030FEF723FF80460748006820F00100BF
:103CE0000549086000BF00200249087600BF404631
:103CF000C6E70000CC0B0020103C02400020094920
:103D0000096801F0004159B10749064A0C3A1160AF
:103D1000064911600349096801F0004101B1012021
:103D200070470000103C024023016745AB89EFCD8E
:103D300010B50446102C18D134480078002863D000
:103D400006F038FD01285FD031493248006806F09E
:103D500065F82F480068002856D020062E490860D4
:103D6000BFF34F8FBFF36F8F4EE0802C4CD12B48A9
:103D7000007840F00100294908700846007800F0FA
:103D800001000870E8B30846007820F001000870D0
:103D90000846007840F002000870214805F0B8F8A5
:103DA0001F48001F90ED010A1E48D0ED000A30EEBA
:103DB000600A1D48D0ED000A20EE200A1848001FB6
:103DC00080ED010A90ED020A1648D0ED010A30EEAE
:103DD000600A1548D0ED010A20EE200A1048001FA5
:103DE00080ED020A90ED030A0E48D0ED020A30EE93
:103DF000600A0D48D0ED020A20EE200A0848001F94
:103E000000E001E080ED030A10BD00002900002061
:103E1000480000200000002004ED00E02800002001
:103E2000D8010020300000203C00002010B50446DE
:103E300004480068204020B1024804602046FFF793
:103E400077FF10BD143C0140F8B502460B46002533
:103E5000002400200021D6E0012606FA01F51E68A4
:103E600006EA0504AC4274D11E7906F00306012E61
:103E700004D01E7906F00306022E13D190684F007D
:103E80000326BE40B0434F00DE68BE403043906022
:103E9000506801268E40B0431E79C6F300168E404E
:103EA000304350601E7906F00306032E09D0D06817
:103EB0004F000326BE40B0434F009E68BE403043D3
:103EC000D0601E7906F00306022E13D1CF0802F14E
:103ED000200656F827004E07F70E0F26BE40B043C7
:103EE0004F07FF0E1E69BE403043CF0802F1200687
:103EF00046F8270010684F000326BE40B0431E79E5
:103F000006F003064F00BE40304310605E6806F4C2
:103F10004036002E76D000BF002600963C4E366814
:103F200046F480463A4F3E603E46366806F4804688
:103F3000009600BF00BF374E8F0856F827008E0747
:103F4000370F0F26BE40B043334EB24202D1002697
:103F500024E057E0314EB24201D101261EE0304E3E
:103F6000B24201D1022619E02E4EB24201D10326FF
:103F700014E02D4EB24201D104260FE02B4EB24286
:103F800001D105260AE02A4EB24201D1062605E0FB
:103F9000284EB24201D1072600E008268F073F0FC6
:103FA000BE4030431B4E8F0846F82700224E306833
:103FB000A0435E6806F4801606B120431E4E3060B2
:103FC000361D3068A0435E6806F4001606B1204333
:103FD000194E361D3060184E361F3068A0435E689B
:103FE00006F4003606B12043134E361F3060361FEC
:103FF0003068A0435E6806F4803606B120430E4E5A
:10400000083E3060491C1029FFF426AFF8BD0000BF
:1040100044380240083801400000024000040240D9
:1040200000080240000C0240001002400014024050
:1040300000180240001C0240083C0140024613697F
:104040000B400BB1012000E0002070470AB18161F4
:1040500001E00B048361704701480068704700006D
:104060001801002070B504460CB9012070BD94F809
:104070003D0028B9002084F83C00204600F006FBF3
:10408000242084F83D002068006820F001002168A9
:1040900008602068006840F40040216808602068DB
:1040A000006820F400402168086000F04DFD0546DE
:1040B0005C496068884206D85B48854201D201208D
:1040C00007E0002005E05948854201D2012000E0C8
:1040D0000020012800D1C9E75548B5FBF0F620685B
:1040E000406820F03F003043216848604D496068D7
:1040F000884201D8701C07E04FF4967070434FF46B
:104100007A71B0FBF1F0401C2168096A21F03F018F
:1041100008432168086243496068884214D8681ED1
:1041200061684900B0FBF1F0401CC0F30B000428AB
:1041300001D204203DE0681E61684900B0FBF1F047
:10414000401CC0F30B0034E0A06838B9681E6168F9
:1041500001EB4101B0FBF1F0401C0AE0681E616810
:1041600001EBC10202EB0111B0FBF1F0401C40F485
:104170008040C0F30B0008B901201AE0A06848B9DC
:10418000681E616801EB4101B0FBF1F0401CC0F317
:104190000B000CE0681E616801EBC10202EB01112B
:1041A000B0FBF1F0401CC0F30B0040F4804040F441
:1041B00000402168C9694CF6FF72914308432168A9
:1041C000C861D4E9070108432168096821F0C001EA
:1041D000084321680860D4E903100843216889680E
:1041E00048F2FF329143084321688860D4E9050111
:1041F00008432168C96821F0FF0108432168C860AD
:104200002068006840F001002168086000202064F8
:10421000202084F83D000020206384F83E0000BF89
:1042200024E70000A086010080841E0000093D00F4
:1042300040420F002DE9FC5F04460F469046994628
:10424000DDE90CAB0E9EFFF707FF054694F83D0035
:10425000202870D119230122B0492046009501F091
:1042600089FE10B10220BDE8FC9F00BF94F83C001D
:10427000012801D10220F6E7012084F83C0000BFAC
:104280002068006800F0010028B92068006840F04C
:104290000100216808602068006820F4006021683F
:1042A0000860222084F83D00402084F83E00002071
:1042B0002064C4F824A0A4F82AB0608D2085984812
:1042C000E0624B46424639462046CDE9006501F0A2
:1042D00003FD08B10120C6E7208D88B900BF00208A
:1042E000019020684069019020688069019000BFBA
:1042F00000BF2068006840F400702168086040E05A
:10430000208D012818D12068006820F48060216881
:10431000086000BF0020019020684069019020687B
:104320008069019000BF00BF2068006840F4007001
:104330002168086025E0EFE0208D022816D1206872
:10434000006820F48060216808602068006840F4FC
:1043500000602168086000BF00200190206840696B
:10436000019020688069019000BF0AE000BF002032
:10437000019020684069019020688069019000BF29
:1043800000BFBAE0208D03287ED8208D012815D1EA
:104390002A463146204601F092FE08B1012062E72C
:1043A00020680069616A0870606A401C6062208D44
:1043B000401E2085608D401E60859EE0208D022875
:1043C0002AD13346002257492046009501F0D2FDFC
:1043D00008B1012047E72068006840F400702168B8
:1043E000086020680069616A0870606A401C606249
:1043F000208D401E2085608D401E608520680069EC
:10440000616A0870606A401C6062208D401E2085D1
:10441000608D401E608570E0334600224149204691
:10442000009501F0A7FD08B101201CE72068006895
:1044300020F480602168086020680069616A087063
:10444000606A401C6062208D401E2085608D401E89
:1044500060853346002233492046009501F08AFDED
:1044600008B10120FFE62068006840F40070216870
:10447000086020680069616A0870606A401C6062B8
:10448000208D401E208500E010E0608D401E60857C
:1044900020680069616A0870606A401C6062208D53
:1044A000401E2085608D401E608526E02A463146EC
:1044B000204601F004FE08B10120D4E6206800691E
:1044C000616A0870606A401C6062208D401E208511
:1044D000608D401E608520684069C0F3800060B137
:1044E00020680069616A0870606A401C6062208D03
:1044F000401E2085608D401E6085208D00287FF441
:1045000041AF202084F83D00002084F83E0000BF29
:1045100084F83C0000BFA6E60220A4E602001000DA
:104520000000FFFF040001002DE9FC5F04460F4678
:1045300090469946DDE90CAB0E9EFFF78DFD0546D2
:1045400094F83D0020287DD1192301224D492046B1
:10455000009501F00FFD10B10220BDE8FC9F00BFE7
:1045600094F83C00012801D10220F6E7012084F8EC
:104570003C0000BF2068006800F0010028B92068F6
:10458000006840F00100216808602068006820F49D
:10459000006021680860212084F83D00402084F8F4
:1045A0003E0000202064C4F824A0A4F82AB0608D46
:1045B00020853548E0624B46424639462046CDE9E3
:1045C000006501F039FC08B10120C6E731E02A4658
:1045D0003146204601F0B3FD50B1206C042805D1CE
:1045E0002068006840F40070216808600120B4E78A
:1045F000606A007821680861606A401C6062208DF2
:10460000401E2085608D401E608520684069C0F393
:10461000800070B1208D60B1606A00782168086107
:10462000606A401C6062208D401E2085608D401EA7
:104630006085208D0028CAD12A463146204601F0E7
:104640006BFC00E01CE050B1206C042805D1206810
:10465000006840F400702168086001207DE7206850
:10466000006840F4007021680860202084F83D0054
:10467000002084F83E0000BF84F83C0000BF6CE7D7
:1046800002206AE7020010000000FFFF10B586B0AC
:104690000446142101A8FBF7E5FF2A492068884257
:1046A0004DD100BF002000902748006840F0040072
:1046B000254908600846006800F00400009000BF2B
:1046C00000BF00BF002000900846006840F00100D5
:1046D00008600846006800F00100009000BF00BFBD
:1046E00048150190122002900120039003200490AD
:1046F0000420059001A91548FFF7A6FB4FF4807030
:1047000001901220029001200390032004900420C5
:10471000059001A90E48FFF797FB00BF002000900D
:1047200009481030006840F4000007491031086063
:104730000846006800F40000009000BF00BF06B00B
:1047400010BD0000005C004030380240000802400C
:104750000000024003480068034909780844014901
:1047600008607047180100202001002010B50D4896
:10477000006840F400700B4908600846006840F487
:10478000806008600846006840F48070086003207C
:1047900000F0DCF8032000F007F800F05FF80020DC
:1047A00010BD0000003C02402DE9F04188B00446F5
:1047B0000027B84600BF002001902448006840F060
:1047C0000100224908600846006800F001000190DD
:1047D00000BF00BF02A903A800F08EF9069F1FB911
:1047E00000F0B2F9054602E000F0AEF945001848C5
:1047F000B5FBF0F0A0F101084FF0804015490860CA
:1048000040F2E7311348C160C0F804800021016123
:104810008160816100F065FE064696B90D4800F0A2
:1048200095FE06466EB91C2000F042F8102C07D207
:10483000002221461C2000F04BF80748046000E0ED
:104840000126304608B0BDE8F08100004038024043
:1048500040420F00840B00201C01002008B500BF5F
:10486000002000901148006840F480400F49086023
:104870000846006800F48040009000BF00BF00BF01
:1048800000200090081F006840F08050091F086059
:104890000846006800F08050009000BF00BF002272
:1048A0000F21901E00F014F808BD000044380240AB
:1048B00001460846002809DB00F01F0301229A4048
:1048C00043099B0003F1E023C3F8002100BF7047B8
:1048D0002DE9F05F80460D461646002703F0A6F846
:1048E000074639462A46334601F00700C0F1070A59
:1048F000BAF1040F02D94FF0040A01E0C0F1070A2F
:10490000D14600F1040ABAF1070F02D24FF0000AB3
:1049100001E0A0F1030AD4464FF0010A0AFA09FAAD
:10492000AAF1010A0AEA020A0AFA0CFA4FF0010B8C
:104930000BFA0CFBABF1010B0BEA030B4AEA0B047D
:104940002146404603F07AF8BDE8F09F00BF00F032
:104950000702064B19684FF6FF031940044B0B433F
:1049600043EA0221014B196000BF70470CED00E0E3
:104970000000FA0570B504460D460CB9012070BD63
:104980005848006800F00700A84209D255490D7048
:104990000846006800F00700A84201D00120EEE7B9
:1049A000207800F0020002281DD1207800F00400D9
:1049B000042805D14C48006840F4E0504A4908609A
:1049C000207800F00800082805D14748006840F426
:1049D0006040454908604448006820F0F000A16844
:1049E000084341490860207800F00100A8B36068DE
:1049F000012807D13C4808380068C0F34040B8B9E6
:104A00000120BCE76068022802D06068032807D153
:104A1000354808380068C0F3406048B90120AEE767
:104A2000314808380068C0F3400008B90120A6E703
:104A30002D48006820F00300616808432A49086097
:104A4000FFF70AFB064609E0FFF706FB801B41F271
:104A50008831884202D9032091E707E022480068A4
:104A600000F00C006168B0EB810FEDD11D480068CB
:104A700000F00700A84209D91A490D7008460068DD
:104A800000F00700A84201D0012078E7207800F06C
:104A90000400042807D11448006820F4E050E168BD
:104AA000084311490860207800F00800082808D160
:104AB0000D48006820F46040216940EAC1000A49BD
:104AC000086000F061F808490968C1F30311074A5A
:104AD000515CC8400649086006480068FFF764FE5C
:104AE00000204CE7003C02400838024040B8000873
:104AF000240100201C0100200F2202600D4A1268D0
:104B000002F0030242600B4A126802F0F002826077
:104B1000084A126802F4E052C260064A126802F4BF
:104B20006042D2080261044A126802F007020A6079
:104B30007047000008380240003C0240014800680D
:104B4000704700002401002000B5FFF7F7FF04497B
:104B50000968C1F38221034A515CC84000BD0000CE
:104B60000838024050B8000800B5FFF7E7FF0449D5
:104B70000968C1F34231034A515CC84000BD0000DE
:104B80000838024050B800082DE9F04700240025FD
:104B90000026A1462548006800F00C0020B104283A
:104BA00005D008283AD105E0DFF8849039E0DFF835
:104BB000849036E01D48001F006800F03F041B4849
:104BC000001F006800F4800078B11A481749091FD7
:104BD0000968C1F38811A0FB017001462246002339
:104BE0003846FBF717FC05460EE011480F49091F30
:104BF0000968C1F38811A0FB017001462246002319
:104C00003846FBF707FC05460848001F0068C0F35C
:104C10000140401C4600B5FBF6F902E0DFF81090B9
:104C200000BF00BF4846BDE8F087000008380240DA
:104C30000024F40000127A00F8B504460CB90120F3
:104C4000F8BD207800F00100002874D0F948006811
:104C500000F00C0004280DD0F648006800F00C00AD
:104C6000082813D1F348001F006800F48000B0F555
:104C7000800F0BD1EF4808380068C0F3404000288F
:104C800059D06068002856D10120D9E700BF60687C
:104C9000B0F5803F08D1E7480838006840F480301C
:104CA000E449083908601EE06068B0F5A02F0DD116
:104CB000E0480838006840F48020DE490839086080
:104CC0000846006840F4803008600CE0D948083895
:104CD000006820F48030D749083908600846006829
:104CE00020F48020086000BF606890B1FFF7B4F93D
:104CF000054606E0FFF7B0F9401B642801D9032000
:104D00009EE7CC4808380068C0F340400028F1D046
:104D100011E0FFF7A1F9054606E0FFF79DF9401BFA
:104D2000642801D903208BE7C24808380068C0F323
:104D300040400028F1D1207800F0020002285FD125
:104D4000BC48006800F00C0058B1BA48006800F098
:104D50000C0008281CD1B748001F006800F4800030
:104D6000B0B9B44808380068C0F3400020B1E0682A
:104D7000012801D0012063E7AE480838006820F020
:104D8000F800216940EAC100AA490839086037E003
:104D9000E06800B30120A8490860FFF75DF9054607
:104DA00006E0FFF759F9401B022801D9032047E725
:104DB000A04808380068C0F340000028F1D09D48A2
:104DC0000838006820F0F800216940EAC1009949DC
:104DD0000839086014E0002097490860FFF73CF9A3
:104DE000054606E0FFF738F9401B022801D90320E9
:104DF00026E7904808380068C0F340000028F1D149
:104E0000207800F0080008282CD16069A8B10120A2
:104E10008A490860FFF720F9054606E0FFF71CF90C
:104E2000401B022801D903200AE782486C30006841
:104E3000C0F340000028F1D014E000207F49086052
:104E4000FFF70AF9054606E0FFF706F9401B0228BE
:104E500001D90320F4E677486C300068C0F34000C5
:104E60000028F1D1207800F00400042870D1002738
:104E700070483830006800F0805090B900BF0020C2
:104E800000906C483830006840F0805069493831F3
:104E900008600846006800F08050009000BF00BF26
:104EA00001276748006800F48070B0B96448006862
:104EB00040F4807062490860FFF7CEF8054606E0CE
:104EC000FFF7CAF8401B022801D90320B8E65C4866
:104ED000006800F480700028F2D000BFA0680128AC
:104EE00008D154486830006840F0010051496831E9
:104EF00008601DE0A06805280DD14E4868300068A4
:104F000040F004004B49683108600846006840F0F2
:104F1000010008600CE047486830006820F001009C
:104F20004449683108600846006820F004000860C1
:104F300000BFA068A8B1FFF78FF8054609E0FFF7AA
:104F40008BF8401B41F28831884202D9032077E672
:104F500026E0384868300068C0F340000028EED0F2
:104F600013E0FFF779F8054608E0FFF775F8401BF6
:104F700041F28831884201D9032061E62D4868302A
:104F80000068C0F340000028EFD1012F07D1294865
:104F90003830006820F0805026493831086000BF62
:104FA000A069002845D02348006800F00C000828BC
:104FB0005DD0A069022845D100201F490866FFF78F
:104FC0004BF8054606E0FFF747F8401B022801D9D9
:104FD000032035E6174808380068C0F34060002811
:104FE000F1D1D4E907010843616A40EA8111012245
:104FF000A06AC2EB500041EA00412C20005D41EA6A
:1050000000600C49091F086001200B490866FFF782
:1050100023F8054606E0FFF71FF8401B022801D9D8
:1050200003200DE6034808380068C0F340600028FC
:10503000F1D049E00838024000004742800E474264
:1050400000700040002021490866FFF705F805467A
:1050500006E0FFF701F8401B022801D90320EFE525
:105060001B480068C0F340600028F2D12CE0A06922
:10507000012800D1E4E51648001D0668A069012852
:1050800020D006F48001E06981421BD106F03F0187
:10509000206A814216D147F6C0703040616AB0EB99
:1050A000811F0FD106F440310122A06AC2EB5000EB
:1050B000B1EB004F06D106F070612C20005DB1EB22
:1050C000006F01D00120BBE50020B9E50000474298
:1050D0000038024010B504460CB9012010BD606ACA
:1050E00038B96068B0F5827F00D105E00021E16148
:1050F00002E00021216161610021A16294F8510068
:1051000028B9002084F85000204600F047F802201B
:1051100084F851002068006820F040002168086091
:10512000A08800F48270218901F404410843A18918
:1051300001F400610843217C01F002010843217D54
:1051400001F001010843218B01F400710843217F24
:1051500001F0380108432021095D01F08001084376
:10516000218D01F400510843216808600421A069E1
:1051700001EA104094F8241001F01001084321685E
:1051800048602068C06920F400602168C861002080
:105190006065012084F8510000209FE710B586B0BB
:1051A0000446142101A8FBF75DFA3C4920688842B7
:1051B00071D100BF002000903948006840F4805051
:1051C000374908600846006800F48050009000BF2E
:1051D00000BF00BF0020009031481438006840F044
:1051E00001002F49143908600846006800F00100EA
:1051F000009000BF00BFE02001900220029001203B
:105200000390032004900520059001A92548FEF78E
:105210001BFE2548254908604FF0C060486000210A
:1052200022488160C1604FF48061016100214161C9
:105230008161C1614FF44031016200214162FEF79A
:10524000F1FB08B1FDF741FB00BF1848E06484633F
:1052500000BF15481830164908604FF0C06048601C
:105260004021134881600021C1604FF480610161D9
:10527000002141618161C1614FF40031016200216F
:105280004162FEF7CFFB08B1FDF71FFB00BF0848E6
:10529000A064846300BF06B010BD00000030014070
:1052A000443802400000024040640240200A0020CE
:1052B000800A00202DE9FF5F0446884691461D467E
:1052C0000E9E012002900020019000BF94F8500033
:1052D000012803D1022004B0BDE8F09F012084F82A
:1052E000500000BFFEF7B8FE074694F851B0606862
:1052F0000390AA46BBF1010F0BD00398B0F5827F53
:1053000004D1A06810B9BBF1040F02D002200190B3
:10531000DBE0B8F1000F03D0B9F1000F00D015B9F0
:1053200001200190D1E094F85100042802D005201A
:1053300084F8510000206065C4F83890E587A5879F
:10534000C4F83080E586A586206460642068006823
:1053500000F04000402805D02068006840F0400080
:1053600021680860E068B0F5006F4AD1606810B14C
:10537000BAF1010F09D1206B00882168C860206B49
:10538000801C2063E08E401EE08633E02068806849
:1053900000F00200022810D1E08E70B102980128BE
:1053A0000BD1206B00882168C860206B801C2063B3
:1053B000E08E401EE086002002902068806800F0A9
:1053C000010068B1E08F58B12068C068A16B088007
:1053D000A06B801CA063E08F401EE087012002903C
:1053E000FEF73AFEC01BB04204D3701C10B103207C
:1053F00001906AE0E08E0028C8D1E08F0028C5D176
:105400004AE0606810B1BAF1010F09D1206B007851
:1054100021680873206B401C2063E08E401EE086EC
:1054200034E02068806800F00200022810D1E08E8D
:1054300070B1029801280BD1206B007821680873A5
:10544000206B401C2063E08E401EE086002002900E
:105450002068806800F0010068B1E08F58B12068D2
:10546000C068A16B0870A06B401CA063E08F401E59
:10547000E08701200290FEF7EFFDC01BB04201D390
:10548000701C00B916B9032001901EE0E08E0028C0
:10549000C7D1E08F0028C4D13A463146204601F0FA
:1054A000F5FD20B101200190202060650DE0A0688D
:1054B00050B900BF002000902068C06800902068AC
:1054C0008068009000BF00BF00BF012084F8510039
:1054D00000BF002084F8500000BF0198FBE6704731
:1054E000704710B504460CB9012010BD94F83D007A
:1054F00028B9002084F83C00204600F025F802205E
:1055000084F83D00211D206801F06EFF012084F821
:10551000460000BF84F83E0001213F200155402095
:1055200001554120015500BF00BF012084F8420011
:1055300043200155442001554520015500BF01205D
:1055400084F83D000020D0E770470000014691F844
:105550003D00012801D001207047022081F83D0064
:105560000868C06840F001000B68D8601A4B0868F2
:1055700098421BD00868B0F1804F17D0174B0868CD
:10558000984213D0164B086898420FD0154B086804
:1055900098420BD0144B0868984207D0134B086808
:1055A000984203D0124B086898420CD10868806872
:1055B00000F00702062A0CD00868006840F00100DD
:1055C0000B68186005E00868006840F001000B688F
:1055D00018600020C0E70000000001400004004007
:1055E00000080040000C0040000401400040014061
:1055F00000180040704710B5044620680069C0F3E9
:105600004000D8B12068C068C0F34000B0B16FF06E
:10561000020021680861012020772068806900F07D
:10562000030018B12046FFF7E5FF05E0204600F033
:10563000ADF8204600F0ABF8002020772068006924
:10564000C0F38000D8B12068C068C0F38000B0B15A
:105650006FF00400216808610220207720688069CB
:1056600000F4407018B12046FFF7C4FF05E0204663
:1056700000F08CF8204600F08AF80020207720689F
:105680000069C0F3C000D8B12068C068C0F3C00092
:10569000B0B16FF00800216808610420207720680D
:1056A000C06900F0030018B12046FFF7A3FF05E032
:1056B000204600F06BF8204600F069F800202077C3
:1056C00020680069C0F30010D8B12068C068C0F33A
:1056D0000010B0B16FF01000216808610820207739
:1056E0002068C06900F4407018B12046FFF782FFBF
:1056F00005E0204600F04AF8204600F048F8002077
:1057000020772068006900F0010058B12068C06867
:1057100000F0010030B16FF00100216808612046FF
:1057200000F036F820680069C0F3C01058B1206856
:10573000C068C0F3C01030B16FF08000216808610C
:105740002046FFF7CCFE20680069C0F3801058B1F6
:105750002068C068C0F3801030B16FF0400021684D
:105760000861204600F01DF820680069C0F3401071
:1057700058B12068C068C0F3401030B16FF020000D
:10578000216808612046FFF7ABFE10BD70477047E7
:1057900010B504462068B0F1804F01D1FEF7DAFF62
:1057A00010BD7047704770472DE9F84F04462068D8
:1057B00005682068C668206847694FF00009CA4636
:1057C00005F00F09B9F1000F0AD105F0200038B13A
:1057D00006F0200020B1204601F030FFBDE8F88F30
:1057E000B9F1000F7CD007F0010018B906F49070F1
:1057F000002875D005F0010030B106F4807018B1B2
:10580000206C40F00100206405F0040030B107F086
:10581000010018B1206C40F00200206405F0020085
:1058200030B107F0010018B1206C40F00400206492
:1058300005F0080048B106F0200010B907F001009B
:1058400018B1206C40F008002064206C002846D07D
:1058500005F0200028B106F0200010B1204601F02C
:10586000EDFE20684069C0F3801A206C00F008004B
:1058700010B9BAF1000F2DD0204601F086FE206845
:10588000406900F04000402820D100BF00BF2168DF
:10589000143151E8001F21F040002168143141E823
:1058A0000002002AF3D100BFA06B50B17548A16B74
:1058B0000865A06BFDF781FF88B1A06B016D88477B
:1058C0000DE02046FFF76FFF09E009E02046FFF7F3
:1058D0006AFF04E02046FFF766FF002020647DE7B2
:1058E000206B012876D105F01000002872D006F058
:1058F00010000028FAD000BF002000902068006847
:10590000009020684068009000BF00BF2068406998
:1059100000F0400040285ED1A06B006840681FFA8C
:1059200080F8B8F1000F54D0A08D404551DDA4F8A7
:105930002E80A06BC069B0F5807F43D000BF00BF50
:1059400021680C3151E8001F21F4807021680C316E
:1059500041E80002002AF3D100BF00BF00BF216868
:10596000143151E8001F21F001002168143141E891
:105970000002002AF3D100BF00BF00BF216814312C
:1059800051E8001F21F040002168143141E8000275
:10599000002AF3D100BF202084F83E0000202063BD
:1059A00000BF00BF21680C3151E8001F21F010003A
:1059B00021680C3141E80002002AF3D100BFA06B3E
:1059C000FDF7A5FEA08DE28D801A81B22046FFF77B
:1059D000E9FE03E740E0A08DE18D401A1FFA80F850
:1059E000E08DC0B3B8F1000F35D000BF00BF216813
:1059F0000C3151E8001F21F4907021680C3141E80E
:105A00000002002AF3D100BF00BF00BF216814319B
:105A100051E8001F21F001002168143141E8000223
:105A2000002AF3D100BF202084F83E00002020632C
:105A300000BF00BF21680C3151E8001F21F01000A9
:105A400021680C3141E80002002AF3D100BF414631
:105A50002046FFF7A7FEC1E605F0800030B106F052
:105A6000800018B1204601F07BFFB7E605F040004A
:105A700030B106F0400018B1204601F0BCFDADE6A3
:105A800000BFABE6C174000810B504460CB9012094
:105A900010BDA06900B100E000BF94F83D0028B936
:105AA000002084F83C00204600F028F8242084F8E8
:105AB0003D002068C06820F400502168C86020467E
:105AC00001F038FE2068006920F4904021680861E8
:105AD0002068406920F02A00216848612068C06879
