:020000040800F2
:10000000C8CD00202903000819500008ED3D000864
:10001000155000082D0A000865580008000000006F
:10002000000000000000000000000000690200085D
:10003000170C000800000000C50200085552000817
:100040004303000843030008430300084303000878
:100050004303000843030008430300084303000868
:100060004303000843030008190C00084303000879
:100070004303000843030008430300084303000848
:100080004303000843030008430300084303000838
:10009000310A0008410A000843030008230C000845
:1000A0004303000843030008430300084303000818
:1000B00049530008430300084303000843030008B2
:1000C00043030008430300084303000843030008F8
:1000D0004303000855580008430300084303000881
:1000E00043030008430300084303000843030008D8
:1000F00043030008430300084303000843030008C8
:1001000043030008430300084303000843030008B7
:1001100043030008430300084303000843030008A7
:100120004303000843030008430300084303000897
:100130004303000800000000000000004303000823
:100140004303000843030008430300084303000877
:100150004303000843030008290B00084303000879
:100160004303000843030008430300084303000857
:1001700043030008430300080000000000000000E3
:10018000430300084303000800F002F800F05CF8A5
:100190000AA090E8000C82448344AAF10107DA45E2
:1001A00001D100F051F8AFF2090EBAE80F0013F0D8
:1001B000010F18BFFB1A43F0010318470C9400000D
:1001C0002C9400000A444FF0000C10F8013B13F08F
:1001D000070408BF10F8014B1D1108BF10F8015BA0
:1001E000641E05D010F8016B641E01F8016BF9D193
:1001F00013F0080F1EBF10F8014BAD1C0C1B09D1EA
:100200006D1E58BF01F801CBFAD505E014F8016B5B
:1002100001F8016B6D1EF9D59142D6D370470000ED
:100220000023002400250026103A28BF78C1FBD8FF
:10023000520728BF30C148BF0B6070471FB509F097
:1002400060F91FBD10B510BD00F002FA1146FFF7AE
:10025000F5FF06F09FFD00F020FA03B4FFF7F2FF70
:1002600003BC00F023FA00002C4B19680868B0E8C2
:10027000F04F80F30988BFF36F8F4FF0000080F3D9
:10028000118870470000000008480068006880F38B
:1002900008884FF0000080F3148862B661B6BFF39F
:1002A0004F8FBFF36F8F00DF00BF00BF08ED00E08E
:1002B000DFF80C00016841F470010160704700BF75
:1002C00088ED00E0EFF30980BFF36F8F134B1A68DE
:1002D0001EF0100F08BF20ED108A20E9F04F1060CB
:1002E00009B44FF0500080F31188BFF34F8FBFF374
:1002F0006F8F07F057FD4FF0000080F3118809BCA5
:1003000019680868B0E8F04F1EF0100F08BFB0EC95
:10031000108A80F30988BFF36F8F704704010020B3
:10032000EFF30580704700000948804709480047FF
:10033000FEE7FEE7FEE7FEE7FEE7FEE7FEE7FEE795
:10034000FEE7FEE704480549054A064B70470000F2
:100350003553000889010008C86D0020C8CD002071
:10036000C88D0020C88D002053EA020C00F069807F
:100370002DE9F04B4FF00006002B1FBFB3FA83F5B9
:1003800003FA05F424FA05F65E4012BF1643B2FAEA
:1003900082F502FA05F4C5F120051EBF22FA05FC1C
:1003A00044EA0C04203556EA044C4FEA144418BFC2
:1003B000641C4FF000084FF00009904271EB030CF1
:1003C00039D3002919BFB1FA81F701FA07F6B0FA5B
:1003D00080F700FA07F6C7F120071EBF20FA07FCD6
:1003E00046EA0C062037B6FBF4FCA7EB0507103FE6
:1003F00007F01F0BCBF120060CFA0BFB2CFA06F6CC
:1004000044BFB3460026202FA4BF5E464FF0000B2A
:100410005BEA060C08BF4FF0010B19EB0B09ABFBB5
:10042000027C48EB0608C01B06FB02CC0BFB03CC8E
:1004300071EB0C01C1E70B46024641464846BDE858
:10044000F08B13B54FF000004FF00001AFF30080C8
:10045000BDE81C40704710B5431C02E010F8011BBA
:1004600071B18107FAD14FF0013202C88C1A8C4366
:1004700014EAC211F9D0C01A0A0603D0C01E10BD7A
:10048000C01A10BD0A0401D0801E10BD0902FCD0A4
:10049000401E10BD032A40F2308010F0030C00F023
:1004A000158011F8013BBCF1020F624498BF11F8AE
:1004B00001CB00F8013B38BF11F8013BA2F1040267
:1004C00098BF00F801CB38BF00F8013B11F00303DF
:1004D00000F02580083AC0F0088051F8043B083A43
:1004E00051F804CBA0E80810F5E7121D5CBF51F8E5
:1004F000043B40F8043BAFF30080D20724BF11F85F
:10050000013B11F801CB48BF11F8012B24BF00F8C3
:10051000013B00F801CB48BF00F8012B704710B534
:10052000203AC0F00B80B1E81850203AA0E81850EB
:10053000B1E81850A0E81850BFF4F5AF5FEA027CAC
:1005400024BFB1E81850A0E8185044BF18C918C01B
:10055000BDE810405FEA827C24BF51F8043B40F8BC
:10056000043B08BF7047D20728BF31F8023B48BFA1
:1005700011F8012B28BF20F8023B48BF00F8012BDF
:10058000704702F0FF0343EA032242EA024200F00E
:1005900037B84FF0000200B513469446964620390E
:1005A00022BFA0E80C50A0E80C50B1F12001BFF42C
:1005B000F7AF090728BFA0E80C5048BF0CC05DF892
:1005C00004EB890028BF40F8042B08BF704748BFE0
:1005D00020F8022B11F0804F18BF00F8012B704754
:1005E00070477047704710B500F02AF8006810BDDA
:1005F00010B5044600F024F8046010BD4FF000026E
:100600000429C0F0128010F0030C3FF4C4AFCCF109
:10061000040CBCF1020F18BF00F8012BA8BF20F892
:10062000022BA1EB0C01FFF7B6BF5FEAC17C24BF30
:1006300000F8012B00F8012B48BF00F8012B704790
:1006400000487047646D002000487047646D0020CA
:100650007546FFF7F9FFAE4605006946534620F0A0
:100660000700854618B020B5FFF76CFEBDE82040B6
:100670004FF000064FF000074FF000084FF0000B5E
:1006800021F00701AC46ACE8C009ACE8C009ACE811
:10069000C009ACE8C0098D46704710B50446AFF3F9
:1006A00000802046BDE81040FFF7D7BD0149182063
:1006B000ABBEFEE72600020070470000B7EE000A5E
:1006C00080ED000A9FED060A80ED010A9FED040A05
:1006D00080ED020A9FED020A80ED030A70470000D8
:1006E000000000002DE9F0412DED028B0746B0EE31
:1006F000408A0C4615461E46D6ED024AB0EE644AC4
:10070000D6ED014AF0EE643AD6ED004AB0EE643A16
:10071000D5ED024AF0EE642AD5ED014AB0EE642A26
:10072000D5ED004AF0EE641AD4ED024AB0EE641A38
:10073000D4ED014AF0EE640AD4ED004AB0EE640A4A
:10074000384604F013F8BDEC028BBDE8F08170B5BB
:1007500004464FF6FF7506F041F86C2006F008F8E5
:1007600006F082F8E0B206F003F806F07DF806F035
:1007700035F86D2005F0FCFF06F076F8012005F055
:10078000C9FF0546002005F0C5FF40EA052506F033
:100790004BF8284670BD000010B501221021024818
:1007A00001F058FD10BD00000000024010B500220D
:1007B0001021024801F04EFD10BD00000000024073
:1007C0007047000010B501221146024801F042FDB9
:1007D00010BD00000004024010B5002201210248B3
:1007E00001F038FD10BD000000040240704710B554
:1007F0000446204606F0EAFA10BD10B5044620462D
:1008000005F0FCFD10BD10B50024FFF7D9FFFFF780
:10081000EDFF05F053FB10B144F0800402E005F059
:100820009DFA044305F082FD10B144F0400402E05B
:1008300005F002FD0443204610BD00002DE9FC41F7
:1008400005460E461746002000900190FFF7AEFFC8
:10085000922000F0D1F806226946122000F0ACF890
:10086000FFF79AFF9DF80100000200B29DF800100A
:1008700040EA010400EE104AB8EEC00A4C48D0ED40
:10088000000A20EE200A86ED000A9DF8030000020F
:1008900000B29DF8021040EA010400EE104AB8EEE2
:1008A000C00A4348D0ED000A20EE200A86ED010A76
:1008B0009DF80500000200B29DF8041040EA010412
:1008C00000EE104AB8EEC00A3948D0ED000A20EE1A
:1008D000200A86ED020AFFF77FFF08226946002002
:1008E00000F06AF8FFF76EFF9DF800000F2838D17E
:1008F0009DF80300000200B29DF8021040EA0104D6
:1009000000EE104AB8EEC00A2A48D0ED000A20EEE8
:10091000200A85ED000A9DF80500000200B29DF84E
:10092000041040EA010400EE104AB8EEC00A214863
:10093000D0ED000A20EE200A85ED010A9DF807009F
:10094000000200B29DF8061040EA010400EE104AD1
:10095000B8EEC00A1748D0ED000A20EE200A85ED57
:10096000020AFFF723FFA22000F046F802226946A0
:10097000222000F021F8FFF70FFF9DF80000C000D3
:100980009DF8011040EA6114B4F5806F02DBA4F514
:10099000006004B200EE104AF8EEC00AB4EE001A8D
:1009A000B3EE070A00EE810A87ED000ABDE8FC817C
:1009B0007C0000208000002070B506460C461546DD
:1009C00046F0800000F018F806E0552000F014F81A
:1009D0002070641C681EC5B2002DF6D170BD70B5C4
:1009E00004460D4644F0800000F006F8552000F063
:1009F00003F8287070BD000001B582B04FF47A7022
:100A0000012301AA02A90090024802F057FD9DF8B7
:100A100004000EBD0009002070B505460C462846AE
:100A2000FFF7EAFF2046FFF7E7FF70BD00BFFEE7D4
:100A300010B5024800F024FD10BD0000840800201D
:100A400010B5024800F01CFD10BD00008408002015
:100A500010B58AB004460C492068884211D10120A3
:100A6000089000200590049000900190029003905F
:100A70000690012007900E2009906946034800F077
:100A8000AFFB0AB010BD00000064004084080020E5
:100A900010B50446204600F052FF0221204600F027
:100AA000DFFA2046FFF7D4FF10BD000010B5024862
:100AB000FFF7EEFF10BD00008408002070B58AB07B
:100AC00006460D461446049500200690079008201F
:100AD000089020788DF8080060788DF80900A078DB
:100AE0008DF80A00E0788DF80B0020798DF80C0065
:100AF00060798DF80D00A0798DF80E00E0798DF801
:100B00000F0001AB02AA04A9304600F0BEFA18B9E2
:100B100001200449087002E00220024908700AB06E
:100B200070BD00006600002010B5024800F0A8FF6C
:100B300010BD00005C0A0020014608781038182318
:100B4000B0FBF3F20848805CC865032A05D9086841
:100B50006FF30900001D886503E008686FF3090062
:100B60008865886D70470000889500080146002060
:100B70008A6A8B69CBB932B1012A0DD0022A03D01F
:100B8000032A10D10EE000BFCB6A03F08073B3F1EB
:100B9000807F00D1012007E0CB6AB3F1C07F00D194
:100BA000012001E000E000BF34E08B69B3F5005F95
:100BB0001AD132B1012A07D0022A03D0032A11D157
:100BC0000AE000BF01200EE0CB6A03F08073B3F1AE
:100BD000807F00D1012006E0CB6AB3F1C07F00D155
:100BE000012000E000BF15E032B1012A05D0022A41
:100BF00004D0032A0CD103E000BF00BF012008E0AD
:100C0000CB6A03F08073B3F1807F00D1012000E054
:100C100000BF00BF7047704710B5102001F00AFAFE
:100C200010BD10B5202001F005FA802001F002FA75
:100C300010BD72B600BFFEE710B5002201B909E091
:100C4000012901D10A0205E0022901D10A0201E0CD
:100C50004FF440720E4B1B6823F440730C4C23601E
:100C600023461B681343236023461B6823F0F803C5
:100C7000236023461B68022444EAC0042343044C37
:100C8000236023461B6843F48033236010BD0000BB
:100C9000103C02401C48006800F40070B0B11A48D3
:100CA000006820F400701849086000BF084600681A
:100CB00040F4006008600846006820F400600860A6
:100CC00000BF0846006840F4007008600E480068E5
:100CD00000F48060B0B10C48006820F480600A49DC
:100CE000086000BF0846006840F48050086008466D
:100CF000006820F48050086000BF0846006840F497
:100D00008060086070470000003C02400A4A126898
:100D100022F44072084B1A601A46126842F004022C
:100D20001A601A4612684FF4803343EA00231A43CC
:100D3000014B1A6070470000103C0240074A1268DD
:100D400022F44072054B1A601A4612681A601A465D
:100D5000126842F001021A6001707047103C0240B4
:100D600010B50D49096821F440710B4C21602146F2
:100D7000096841F4407121602146096841F0010190
:100D80002160026000BF00BF00BFBFF36F8F00BFD4
:100D900000BF00BF436010BD103C0240084A12680B
:100DA00022F44072064B1A601A46126842F48072AE
:100DB0001A601A46126842F001021A6001807047F8
:100DC000103C0240084A126822F44072064B1A6036
:100DD0001A46126842F400721A601A46126842F00B
:100DE00001021A6001607047103C0240234800680D
:100DF00000F0100040B12248C06940F010002049C6
:100E0000C86110201D4908601C48006800F02000DF
:100E100040B11B48C06940F008001949C861202052
:100E2000164908601548006800F0400040B11448B9
:100E3000C06940F004001249C86140200F490860B1
:100E40000E48006800F0800040B10D48C06940F0D5
:100E500002000B49C8618020084908600748006803
:100E600000F0020040B10648C06940F0200004498B
:100E7000C861022001490860704700000C3C024034
:100E8000040B002070B50446002500201449C861F9
:100E900001F0E6F9054609E0601C38B124B101F023
:100EA000DFF9401BA04201D9032070BD0D48006846
:100EB00000F480300028EFD10A48006800F00100FB
:100EC00010B10120074908600648006800F0F200F0
:100ED00018B1FFF78BFF0120E7E70020E5E70000EE
:100EE000040B00200C3C02400146074A1068B0F198
:100EF000A53F02D04FF0FF30704792ED010A81ED1F
:100F0000000A0020F8E700000000020802460B4635
:100F100010490868B0F1A53F02D04FF0FF3070478C
:100F200091ED010A82ED000A91ED020A82ED010ABB
:100F300091ED030A82ED020A91ED040A83ED000AA5
:100F400091ED050A83ED010A91ED060A83ED020A8F
:100F50000020E4E70000010800B52DED028B87B00A
:100F6000B0EE408A002001900520049000200290FD
:100F7000022006900120059000F0C4FF01A902A8FC
:100F800000F014FF4FF0A53200230949022000F0C1
:100F90006DFF18EE102A00230549091D022000F0FC
:100FA00065FF00F059FF07B0BDEC028B00BD0000EB
:100FB00000000208F0B58FB005460E4600200990EB
:100FC00004200C9000200A9002200E9001200D9029
:100FD00000F098FF09A90AA800F0E8FE4FF0A5303C
:100FE00001902868029068680390A86804903068AF
:100FF000059070680690B068079000240CE001A886
:1010000050F82470074800EB84013A460023022080
:1010100000F02CFF601CC4B2202CF0D300F01CFFA9
:101020000FB0F0BD000001080CB58DED010ACDED4B
:10103000000A019901700199090A41700199090C8E
:1010400081700199090EC170009901710099090A16
:1010500041710099090C81710099090EC1710CBD93
:1010600010B5024692F82030012B01D0022B06D198
:1010700010684069084314686061002010BD506A20
:1010800040F4802050620120F8E7F0B504460D4698
:101090001E4694F8207020688368A86800B900E0B4
:1010A00000BF012F01D0022F7CD103F0806030B946
:1010B00003F0006018B903F08050002873D0C3F328
:1010C0000161022905D9606A40F4000060620120D4
:1010D000F0BD012088403060A86860B9B5F800C054
:1010E000E86840EA4C5C206800F5C07000EB011035
:1010F000C0F800C00FE0D5E901C040EACC00D5F847
:101100000CC040EA0C00D4F800C00CF5C07C0CEB1D
:10111000011CCCF80000D5F810C0206800F5C070A4
:1011200000EB0110C0F804C0287D01280ED1206812
:1011300000F5C07000EB0110406840F4807C20682E
:1011400000F5C07000EB0110C0F804C0D0790006B3
:1011500092F806C040EA0C4092F805C040EA0C2C18
:1011600010794CEA000C206800F5C07000EB01100B
:10117000C0F80CC0D078000692F802C040EA0C40DB
:1011800092F801C040EA0C2092F800C040EA0C003E
:10119000D4F800C00CF5C07C0CEB011CCCF80800A6
:1011A000206801E016E00FE000F5C07000EB0110D0
:1011B000006840F0010C206800F5C07000EB0110E1
:1011C000C0F800C0002083E7606A40F4001060624D
:1011D00001207DE7606A40F480206062012077E7AB
:1011E000F0B504460A46216894F82050012D01D03C
:1011F000022D7ED1424901F50071086840F00100DE
:101200000860086820F47C5008600868566A40EA64
:1012100006200860107D00F01F06012000FA06F38A
:10122000C8699843C861A1F50071D069C8B9D1F8FF
:101230000C029843C1F80C02908880B2968940EA6B
:10124000064601F51070576940F83760108880B283
:10125000168940EA064601F51070576900EBC70091
:101260004660D069012819D1D1F80C021843C1F8A1
:101270000C02908880B2168840EA064601F510708C
:10128000576940F83760908980B2168940EA06466F
:1012900001F51070576900EBC7004660906928B9E6
:1012A000D1F804029843C1F8040204E0D1F8040222
:1012B0001843C1F80402106928B9D1F81402984300
:1012C000C1F8140204E0D1F814021843C1F8140262
:1012D000106A012804D1D1F81C021843C1F81C027D
:1012E000D1F8000220F00100C1F800020020F0BD9A
:1012F000FFE7606A40F4802060620120F7E70000A9
:1013000000640040704770B5044694F82050012DE9
:1013100001D0022D7DD151B92068C06800F00300D2
:1013200080B9606A40F400106062012070BD2068DE
:10133000006900F0030028B9606A40F400106062A0
:101340000120F3E7206800F5D87000EB0110006879
:1013500000F004009060906840B9206800F5D870F3
:1013600000EB01100068400D106007E0206800F5F8
:10137000D87000EB01100068C0085060206800F5CC
:10138000D87000EB0110006800F00200D060206807
:1013900000F5D87000EB0110406800F00F001061FC
:1013A000206800F5D87000EB0110406800F47F4021
:1013B000000A9061206800F5D87000EB01104068C9
:1013C000000C5061206800F5D87000EB01108068B7
:1013D0001870206800F5D87000EB0110806800F4E8
:1013E0007F40000A5870206800F5D87000EB0110AB
:1013F000806800F47F00000C9870206800F5D870B9
:1014000000EB01108068000ED870206800F5D870DD
:1014100000E02FE000EB0110C0681871206800F5B3
:10142000D87000EB0110C06800F47F40000A5871CA
:10143000206800F5D87000EB0110C06800F47F0050
:10144000000C9871206800F5D87000EB0110C0689E
:10145000000ED87131B92068C06840F020002668BD
:10146000F06005E02068006940F0200026683061E7
:1014700000205BE7606A40F480206062012055E74D
:101480002DE9F05F04460025206846692068D0F801
:101490000490206887682068D0F80CA02068D0F8F5
:1014A00010B02068D0F8188006F00100002855D050
:1014B00007F00100C0B101202168886007F0020038
:1014C00018B1204600F06BFA0EE007F0040010B1EE
:1014D00045F4006508E007F0080010B145F48055B8
:1014E00002E0204600F05AFA07F48070C8B14FF4C9
:1014F00080702168886007F4007018B1204600F001
:1015000050FA0EE007F4806010B145F4005508E091
:1015100007F4006010B145F4804502E0204600F079
:101520003FFA07F48030C8B14FF4803021688860FA
:1015300007F4003018B1204600F035FA0EE007F449
:10154000802010B145F4004508E007F4002010B1F8
:1015500045F4803502E0204600F024FA06F0080049
:1015600038B10AF0100020B145F400751020216850
:10157000C86006F0040040B10AF0080028B1082055
:101580002168C860204600F0B1F906F0020038B1C9
:101590002068C06800F0030010B1204600F0A8F9F0
:1015A00006F0400038B10BF0100020B145F4806522
:1015B00010202168086106F0200040B10BF00800FF
:1015C00028B1082021680861204600F0B5F906F02E
:1015D000100038B12068006900F0030010B1204607
:1015E00000F0ABF906F4003040B109F0100028B16A
:1015F000102021684860204600F0A0F906F48030F1
:1016000040B109F0080028B1082021684860204650
:1016100000F0CAF906F4004088B309F0040078B37A
:1016200006F4807020B108F0010008B145F0010512
:1016300006F4007020B108F0020008B145F0020580
:1016400006F4806020B108F0040008B145F00405FC
:1016500006F40060A0B108F0700088B108F07000D6
:10166000402817D006DC10280BD020280CD03028BA
:1016700019D10CE0502810D0602814D110E01DE0E2
:1016800019E045F008050FE045F010050CE045F0C5
:10169000200509E045F0400506E045F0800503E03F
:1016A00045F4807500E000BF00BF2068806920F02D
:1016B0007000216888610420216848602DB1606A4B
:1016C000284360622046FFF71DFEBDE8F09F70B51D
:1016D00004460CB9012070BD94F8200010B92046D2
:1016E00000F0B0F82068006840F001002168086050
:1016F00000F0B6FD05460DE000F0B2FD401B0A28E3
:1017000008D9606A40F400306062052084F8200047
:101710000120E0E72068406800F001000028EBD0DD
:101720002068006820F002002168086000F098FD41
:1017300005460DE000F094FD401B0A2808D9606AB8
:1017400040F400306062052084F820000120C2E7E8
:101750002068406800F002000028EBD1207E0128BC
:1017600006D12068006840F080002168086005E02C
:101770002068006820F0800021680860607E0128F1
:1017800006D12068006840F040002168086005E04C
:101790002068006820F0400021680860A07E0128D1
:1017A00006D12068006840F020002168086005E04C
:1017B0002068006820F0200021680860E07E012891
:1017C00006D12068006820F010002168086005E05C
:1017D0002068006840F0100021680860207F012820
:1017E00006D12068006840F008002168086005E024
:1017F0002068006820F0080021680860607F0128E8
:1018000006D12068006840F004002168086005E007
:101810002068006820F0040021680860D4E9020113
:10182000084321690843616908436168491E084308
:101830002168C86100206062012084F82000002037
:1018400049E7000010B586B00446142101A8FEF750
:10185000A0FE23492068884240D100BF00200090AC
:101860002048006840F000701E4908600846006883
:1018700000F00070009000BF00BF00BF002000908B
:1018800018481038006840F0010016491039086007
:101890000846006800F00100009000BF00BF4FF450
:1018A000C050019002200290002003900320049079
:1018B0000920059001A90C4800F0CAFB002205216F
:1018C000142001F009F9142001F0F6F80022052196
:1018D000152001F001F9152001F0EEF806B010BD59
:1018E00000640040403802400000024070470000A1
:1018F00010B58AB004460C492068884212D108AB62
:1019000001AA00210948FFF7FEFC0198092808D127
:101910009DF82000064908709DF8210005490870CF
:1019200000BF00BF0AB010BD006400408408002062
:10193000640000206500002070477047704770B554
:10194000044694F82000012822D1022084F82000C7
:101950002068006820F001002168086000F080FC29
:1019600005460DE000F07CFC401B0A2808D9606A9F
:1019700040F400306062052084F82000012070BD32
:101980002068406800F001000028EBD16062F6E7B3
:10199000606A40F4002060620120F0E77047704701
:1019A0007047704770477047704770B50446A56D23
:1019B00000F056FC064694F83500022808D0802036
:1019C000606500BF002084F8340000BF012070BDB6
:1019D0002068006820F016002168086020684069CF
:1019E00020F0800021684861206C08B9A06C28B103
:1019F0002068006820F008002168086020680068FE
:101A000020F001002168086010E000F029FC801B34
:101A100005280BD920206065032084F8350000BF1D
:101A2000002084F8340000BF0320D0E7206800685D
:101A300000F001000028E8D194F85C103F208840B5
:101A4000A860012084F8350000BF002084F834002D
:101A500000BF00BFBBE7014691F83500022803D064
:101A60008020486501207047052081F8350008680E
:101A7000006820F001000A6810600020F3E7000011
:101A8000F8B50446002000908C4800684FF41651C9
:101A9000B0FBF1F7A56D2E6894F85C100820884023
:101AA000304098B12068006800F0040070B12068F0
:101AB000006820F004002168086094F85C10082099
:101AC0008840A860606D40F00100606594F85C108B
:101AD00001208840304068B12068406900F08000F3
:101AE00040B194F85C1001208840A860606D40F01F
:101AF0000200606594F85C1004208840304068B1B2
:101B00002068006800F0020040B194F85C100420E6
:101B10008840A860606D40F00400606594F85C1037
:101B200010208840304078B32068006800F008003A
:101B300050B394F85C1010208840A86020680068BA
:101B400000F4802080B12068006800F4002028B9EB
:101B5000206CC8B12046216C884715E0A06C98B174
:101B60002046A16C88470FE02068006800F4807070
:101B700028B92068006820F0080021680860206CFF
:101B800010B12046216C884794F85C1020208840D2
:101B90003040002865D02068006800F01000002860
:101BA0005FD094F85C1020208840A86094F835003D
:101BB000052828D12068006820F0160021680860F8
:101BC0002068406920F0800021684861206C08B9D5
:101BD000A06C28B12068006820F008002168086027
:101BE00094F85C103F208840A860012084F83500FC
:101BF00000BF002084F8340000BF206D10B12046E3
:101C0000216D8847F8BD2068006800F4802080B10D
:101C10002068006800F4002028B9606C10B12046EC
:101C2000616C88471DE0E06BD8B12046E16B8847C6
:101C300017E02068006800F4807068B920680068C8
:101C400020F0100021680860012084F8350000BFF2
:101C5000002084F8340000BFE06B10B12046E16B37
:101C60008847606D38B3606D00F00100F0B1052069
:101C700084F835002068006820F0010021680860C1
:101C800000BF0098401C0090B84200D905E02068D1
:101C9000006800F001000028F3D100BF012084F8A3
:101CA000350000BF002084F8340000BFE06C10B1A4
:101CB0002046E16C884700BFA4E700000001002037
:101CC0002DE9F0410446002500F0CAFA074614B990
:101CD0000120BDE8F081606A00B100BF022084F8F5
:101CE000350000BF002084F8340000BF2068006881
:101CF00020F00100216808600AE000F0B1FAC01B82
:101D0000052805D920206065032084F83500E0E728
:101D10002068006800F001000028EED12068056806
:101D200021480540D4E901010843E16808432169DD
:101D3000084361690843A1690843E1690843216ACE
:101D400008430543606A042803D1D4E90B01084322
:101D50000543206805602068456925F00705606A2D
:101D60000543606A04280DD1A06A0543E06A48B1C2
:101D70002046FEF7FBFE28B140206065012084F874
:101D80003500A6E7206845612046FEF7D5FE0646E9
:101D900094F85C103F208840B0600020606501200E
:101DA00084F83500002094E73F8010F02DE9F041E1
:101DB00004460E460127002500BF2548007E012865
:101DC00002D10220BDE8F08101202149087600BF40
:101DD0004CF25030FFF756F80746002F31D1401E25
:101DE0003060206801280FD1207C6168FEF78EFFEB
:101DF0004CF25030FFF746F807461648006820F0CE
:101E00000400144908601AE0A56812E0217C284605
:101E1000FEF712FF4CF25030FFF734F807460D483A
:101E2000006820F0FA000B4908600FB1356005E04A
:101E30006D1CD4E902100844A842E7D800BFFEF7A1
:101E400029FF00BF00200249087600BF3846B9E7E5
:101E5000040B0020103C02400348006840F00040A2
:101E60000149086000207047103C02402DE9F04114
:101E700006460F4614461D464FF0010800BF1F4896
:101E8000007E012802D10220BDE8F08101201B491B
:101E9000087600BF4CF25030FEF7F4FF8046B8F1F0
:101EA000000F23D126B9E1B23846FEF747FF12E012
:101EB000012E04D1A1B23846FEF770FF0BE0022ECE
:101EC00004D121463846FEF77DFF04E022462B462A
:101ED0003846FEF745FF4CF25030FEF7D3FF804600
:101EE0000748006820F001000549086000BF002095
:101EF0000249087600BF4046C6E70000040B0020F8
:101F0000103C024000200949096801F0004159B124
:101F10000749064A0C3A11600649116003490968ED
:101F200001F0004101B1012070470000103C024067
:101F300023016745AB89EFCD10B50446102C18D1AD
:101F400034480078002863D006F012FB01285FD0E7
:101F500031493248006805F03FFE2F4800680028EC
:101F600056D020062E490860BFF34F8FBFF36F8F06
:101F70004EE0802C4CD12B48007840F001002949DC
:101F800008700846007800F001000870E8B30846C1
:101F9000007820F0010008700846007840F0020048
:101FA0000870214804F0B6FE1F48001F90ED010A9A
:101FB0001E48D0ED000A30EE600A1D48D0ED000A40
:101FC00020EE200A1848001F80ED010A90ED020A59
:101FD0001648D0ED010A30EE600A1548D0ED010A2E
:101FE00020EE200A1048001F80ED020A90ED030A3F
:101FF0000E48D0ED020A30EE600A0D48D0ED020A1C
:1020000020EE200A0848001F00E001E080ED030AEE
:1020100010BD000029000020440000200000002026
:1020200004ED00E028000020B40100202C00002076
:102030003800002010B5044604480068204020B154
:10204000024804602046FFF777FF10BD143C0140B2
:10205000F8B502460B460025002400200021D6E0FA
:10206000012606FA01F51E6806EA0504AC4274D1A1
:102070001E7906F00306012E04D01E7906F0030631
:10208000022E13D190684F000326BE40B0434F008C
:10209000DE68BE4030439060506801268E40B043F9
:1020A0001E79C6F300168E40304350601E7906F04C
:1020B0000306032E09D0D0684F000326BE40B0436C
:1020C0004F009E68BE403043D0601E7906F0030684
:1020D000022E13D1CF0802F1200656F827004E0732
:1020E000F70E0F26BE40B0434F07FF0E1E69BE40DD
:1020F0003043CF0802F1200646F8270010684F0051
:102100000326BE40B0431E7906F003064F00BE40D2
:10211000304310605E6806F44036002E76D000BF73
:10212000002600963C4E366846F480463A4F3E60A4
:102130003E46366806F48046009600BF00BF374E24
:102140008F0856F827008E07370F0F26BE40B04382
:10215000334EB24202D1002624E057E0314EB24263
:1021600001D101261EE0304EB24201D1022619E013
:102170002E4EB24201D1032614E02D4EB24201D1BF
:1021800004260FE02B4EB24201D105260AE02A4E6A
:10219000B24201D1062605E0284EB24201D10726FF
:1021A00000E008268F073F0FBE4030431B4E8F08CC
:1021B00046F82700224E3068A0435E6806F4801679
:1021C00006B120431E4E3060361D3068A0435E6865
:1021D00006F4001606B12043194E361D3060184E25
:1021E000361F3068A0435E6806F4003606B120430F
:1021F000134E361F3060361F3068A0435E6806F409
:10220000803606B120430E4E083E3060491C10292E
:10221000FFF426AFF8BD0000443802400838014002
:10222000000002400004024000080240000C02408E
:10223000001002400014024000180240001C02403E
:10224000083C0140024613690B400BB1012000E03D
:10225000002070470AB1816101E00B04836170477F
:102260000148006870470000F400002070B5044683
:102270000CB9012070BD94F83D0028B9002084F805
:102280003C00204600F006FB242084F83D00206836
:10229000006820F00100216808602068006840F4B0
:1022A0000040216808602068006820F40040216830
:1022B000086000F04DFD05465C496068884206D81C
:1022C0005B48854201D2012007E0002005E0594823
:1022D000854201D2012000E00020012800D1C9E799
:1022E0005548B5FBF0F62068406820F03F003043C9
:1022F000216848604D496068884201D8701C07E039
:102300004FF4967070434FF47A71B0FBF1F0401CBB
:102310002168096A21F03F010843216808624349A6
:102320006068884214D8681E61684900B0FBF1F00B
:10233000401CC0F30B00042801D204203DE0681EBD
:1023400061684900B0FBF1F0401CC0F30B0034E0C1
:10235000A06838B9681E616801EB4101B0FBF1F07B
:10236000401C0AE0681E616801EBC10202EB01112A
:10237000B0FBF1F0401C40F48040C0F30B0008B902
:1023800001201AE0A06848B9681E616801EB4101AC
:10239000B0FBF1F0401CC0F30B000CE0681E61685C
:1023A00001EBC10202EB0111B0FBF1F0401CC0F3E4
:1023B0000B0040F4804040F400402168C9694CF6AD
:1023C000FF72914308432168C861D4E907010843BB
:1023D0002168096821F0C001084321680860D4E938
:1023E000031008432168896848F2FF32914308438B
:1023F00021688860D4E9050108432168C96821F093
:10240000FF0108432168C8602068006840F00100AF
:102410002168086000202064202084F83D0000200E
:10242000206384F83E0000BF24E70000A08601007E
:1024300080841E0000093D0040420F002DE9FC5F32
:1024400004460F4690469946DDE90CAB0E9EFFF719
:1024500007FF054694F83D00202870D1192301227A
:10246000B0492046009501F031FE10B10220BDE8D0
:10247000FC9F00BF94F83C00012801D10220F6E740
:10248000012084F83C0000BF2068006800F00100D3
:1024900028B92068006840F00100216808602068C1
:1024A000006820F4006021680860222084F83D0064
:1024B000402084F83E0000202064C4F824A0A4F842
:1024C0002AB0608D20859848E0624B4642463946E6
:1024D0002046CDE9006501F0ABFC08B10120C6E75C
:1024E000208D88B900BF00200190206840690190CC
:1024F00020688069019000BF00BF2068006840F438
:1025000000702168086040E0208D012818D1206803
:10251000006820F480602168086000BF00200190FE
:1025200020684069019020688069019000BF00BF69
:102530002068006840F400702168086025E0EFE042
:10254000208D022816D12068006820F48060216860
:1025500008602068006840F400602168086000BFDF
:1025600000200190206840690190206880690190F6
:1025700000BF0AE000BF0020019020684069019080
:1025800020688069019000BF00BFBAE0208D032859
:102590007ED8208D012815D12A463146204601F0EB
:1025A0003AFE08B1012062E720680069616A08709C
:1025B000606A401C6062208D401E2085608D401E38
:1025C00060859EE0208D02282AD13346002257499B
:1025D0002046009501F07AFD08B1012047E7206808
:1025E000006840F400702168086020680069616A32
:1025F0000870606A401C6062208D401E2085608DDE
:10260000401E608520680069616A0870606A401C2D
:102610006062208D401E2085608D401E608570E0C8
:102620003346002241492046009501F04FFD08B194
:1026300001201CE72068006820F4806021680860A1
:1026400020680069616A0870606A401C6062208DC1
:10265000401E2085608D401E608533460022334930
:102660002046009501F032FD08B10120FFE6206808
:10267000006840F400702168086020680069616AA1
:102680000870606A401C6062208D401E208500E05A
:1026900010E0608D401E608520680069616A0870E6
:1026A000606A401C6062208D401E2085608D401E47
:1026B000608526E02A463146204601F0ACFD08B18F
:1026C0000120D4E620680069616A0870606A401CD5
:1026D0006062208D401E2085608D401E60852068D0
:1026E0004069C0F3800060B120680069616A0870C9
:1026F000606A401C6062208D401E2085608D401EF7
:102700006085208D00287FF441AF202084F83D00B3
:10271000002084F83E0000BF84F83C0000BFA6E61D
:102720000220A4E6020010000000FFFF04000100E8
:102730002DE9FC5F04460F4690469946DDE90CAB57
:102740000E9EFFF78DFD054694F83D0020287DD1B3
:10275000192301224D492046009501F0B7FC10B124
:102760000220BDE8FC9F00BF94F83C00012801D185
:102770000220F6E7012084F83C0000BF20680068D2
:1027800000F0010028B92068006840F001002168CD
:1027900008602068006820F400602168086021203B
:1027A00084F83D00402084F83E0000202064C4F8F6
:1027B00024A0A4F82AB0608D20853548E0624B46FD
:1027C000424639462046CDE9006501F0E1FB08B1FB
:1027D0000120C6E731E02A463146204601F05BFD84
:1027E00050B1206C042805D12068006840F40070C6
:1027F000216808600120B4E7606A007821680861F8
:10280000606A401C6062208D401E2085608D401EE5
:10281000608520684069C0F3800070B1208D60B190
:10282000606A007821680861606A401C6062208DDF
:10283000401E2085608D401E6085208D0028CAD1F5
:102840002A463146204601F013FC00E01CE050B15E
:10285000206C042805D12068006840F400702168CD
:10286000086001207DE72068006840F4007021685E
:102870000860202084F83D00002084F83E0000BF5E
:1028800084F83C0000BF6CE702206AE702001000F9
:102890000000FFFF10B586B00446142101A8FDF723
:1028A00078FE2A49206888424DD100BF0020009060
:1028B0002748006840F00400254908600846006881
:1028C00000F00400009000BF00BF00BF0020009097
:1028D0000846006840F0010008600846006800F003
:1028E0000100009000BF00BF481501901220029027
:1028F00001200390032004900420059001A91548AD
:10290000FFF7A6FB4FF48070019012200290012087
:102910000390032004900420059001A90E48FFF7BE
:1029200097FB00BF0020009009481030006840F479
:1029300000000749103108600846006800F40000F4
:10294000009000BF00BF06B010BD0000005C00405A
:10295000303802400008024000000240034800688E
:10296000034909780844014908607047F4000020D1
:10297000FC00002010B50D48006840F400700B49C1
:1029800008600846006840F48060086008460068F7
:1029900040F480700860032000F0DCF8032000F0B1
:1029A00007F800F05FF8002010BD0000003C024076
:1029B0002DE9F04188B004460027B84600BF00204A
:1029C00001902448006840F0010022490860084650
:1029D000006800F00100019000BF00BF02A903A839
:1029E00000F08EF9069F1FB900F0B2F9054602E02B
:1029F00000F0AEF945001848B5FBF0F0A0F1010871
:102A00004FF080401549086040F2E7311348C1603B
:102A1000C0F80480002101618160816100F065FEE1
:102A2000064696B90D4800F095FE06466EB91C2084
:102A300000F042F8102C07D2002221461C2000F0A2
:102A40004BF80748046000E00126304608B0BDE8B6
:102A5000F08100004038024040420F00BC0A0020D4
:102A6000F800002008B500BF002000901148006861
:102A700040F480400F4908600846006800F4804038
:102A8000009000BF00BF00BF00200090081F00683A
:102A900040F08050091F08600846006800F0805030
:102AA000009000BF00BF00220F21901E00F014F81C
:102AB00008BD00004438024001460846002809DBF2
:102AC00000F01F0301229A4043099B0003F1E02319
:102AD000C3F8002100BF70472DE9F05F80460D4626
:102AE0001646002702F0D4FE074639462A463346EA
:102AF00001F00700C0F1070ABAF1040F02D94FF044
:102B0000040A01E0C0F1070AD14600F1040ABAF153
:102B1000070F02D24FF0000A01E0A0F1030AD446E9
:102B20004FF0010A0AFA09FAAAF1010A0AEA020AAE
:102B30000AFA0CFA4FF0010B0BFA0CFBABF1010B8C
:102B40000BEA030B4AEA0B042146404602F0A8FEBA
:102B5000BDE8F09F00BF00F00702064B19684FF672
:102B6000FF031940044B0B4343EA0221014B196058
:102B700000BF70470CED00E00000FA0570B5044698
:102B80000D460CB9012070BD5848006800F00700E0
:102B9000A84209D255490D700846006800F00700A8
:102BA000A84201D00120EEE7207800F002000228C0
:102BB0001DD1207800F00400042805D14C4800689D
:102BC00040F4E0504A490860207800F008000828E6
:102BD00005D14748006840F46040454908604448D2
:102BE000006820F0F000A16808434149086020789F
:102BF00000F00100A8B36068012807D13C480838FC
:102C00000068C0F34040B8B90120BCE76068022802
:102C100002D06068032807D1354808380068C0F33F
:102C2000406048B90120AEE7314808380068C0F379
:102C3000400008B90120A6E72D48006820F00300F5
:102C4000616808432A490860FFF70AFB064609E065
:102C5000FFF706FB801B41F28831884202D903202E
:102C600091E707E02248006800F00C006168B0EBD3
:102C7000810FEDD11D48006800F00700A84209D976
:102C80001A490D700846006800F00700A84201D0FC
:102C9000012078E7207800F00400042807D11448C8
:102CA000006820F4E050E16808431149086020788A
:102CB00000F00800082808D10D48006820F46040A2
:102CC000216940EAC1000A49086000F061F808493A
:102CD0000968C1F30311074A515CC84006490860FE
:102CE00006480068FFF764FE00204CE7003C024005
:102CF000083802409095000800010020F8000020EC
:102D00000F2202600D4A126802F0030242600B4A71
:102D1000126802F0F0028260084A126802F4E0527F
:102D2000C260064A126802F46042D2080261044A94
:102D3000126802F007020A6070470000083802407B
:102D4000003C02400148006870470000000100207C
:102D500000B5FFF7F7FF04490968C1F38221034A70
:102D6000515CC84000BD000008380240A095000832
:102D700000B5FFF7E7FF04490968C1F34231034A90
:102D8000515CC84000BD000008380240A095000812
:102D90002DE9F047002400250026A14625480068BB
:102DA00000F00C0020B1042805D008283AD105E035
:102DB000DFF8849039E0DFF8849036E01D48001F8A
:102DC000006800F03F041B48001F006800F480000A
:102DD00078B11A481749091F0968C1F38811A0FB87
:102DE00001700146224600233846FDF7BDFA05462C
:102DF0000EE011480F49091F0968C1F38811A0FBB3
:102E000001700146224600233846FDF7ADFA05461B
:102E10000848001F0068C0F30140401C4600B5FB95
:102E2000F6F902E0DFF8109000BF00BF4846BDE8A9
:102E3000F0870000083802400024F40000127A00F5
:102E4000F8B504460CB90120F8BD207800F0010067
:102E5000002874D0F948006800F00C0004280DD058
:102E6000F648006800F00C00082813D1F348001F52
:102E7000006800F48000B0F5800F0BD1EF480838EF
:102E80000068C0F34040002859D06068002856D13F
:102E90000120D9E700BF6068B0F5803F08D1E7485E
:102EA0000838006840F48030E449083908601EE0C2
:102EB0006068B0F5A02F0DD1E0480838006840F4F4
:102EC0008020DE49083908600846006840F48030F8
:102ED00008600CE0D9480838006820F48030D749F1
:102EE000083908600846006820F48020086000BFA8
:102EF000606890B1FFF7B4F9054606E0FFF7B0F956
:102F0000401B642801D903209EE7CC48083800689C
:102F1000C0F340400028F1D011E0FFF7A1F90546C9
:102F200006E0FFF79DF9401B642801D903208BE7D9
:102F3000C24808380068C0F340400028F1D120782A
:102F400000F0020002285FD1BC48006800F00C00CD
:102F500058B1BA48006800F00C0008281CD1B748E6
:102F6000001F006800F48000B0B9B4480838006859
:102F7000C0F3400020B1E068012801D0012063E7E0
:102F8000AE480838006820F0F800216940EAC10026
:102F9000AA490839086037E0E06800B30120A84971
:102FA0000860FFF75DF9054606E0FFF759F9401B99
:102FB000022801D9032047E7A04808380068C0F379
:102FC00040000028F1D09D480838006820F0F80043
:102FD000216940EAC10099490839086014E00020DD
:102FE00097490860FFF73CF9054606E0FFF738F916
:102FF000401B022801D9032026E7904808380068C2
:10300000C0F340000028F1D1207800F00800082823
:103010002CD16069A8B101208A490860FFF720F926
:10302000054606E0FFF71CF9401B022801D90320E2
:103030000AE782486C300068C0F340000028F1D0F5
:1030400014E000207F490860FFF70AF9054606E012
:10305000FFF706F9401B022801D90320F4E6774860
:103060006C300068C0F340000028F1D1207800F0F7
:103070000400042870D1002770483830006800F040
:10308000805090B900BF002000906C483830006834
:1030900040F080506949383108600846006800F007
:1030A0008050009000BF00BF01276748006800F40F
:1030B0008070B0B96448006840F48070624908606C
:1030C000FFF7CEF8054606E0FFF7CAF8401B0228D6
:1030D00001D90320B8E65C48006800F4807000283D
:1030E000F2D000BFA068012808D1544868300068B9
:1030F00040F001005149683108601DE0A0680528D2
:103100000DD14E486830006840F004004B496831EA
:1031100008600846006840F0010008600CE047487D
:103120006830006820F001004449683108600846B2
:10313000006820F00400086000BFA068A8B1FFF795
:103140008FF8054609E0FFF78BF8401B41F2883104
:10315000884202D9032077E626E0384868300068C4
:10316000C0F340000028EED013E0FFF779F80546E1
:1031700008E0FFF775F8401B41F28831884201D919
:10318000032061E62D4868300068C0F34000002845
:10319000EFD1012F07D129483830006820F0805046
:1031A00026493831086000BFA069002845D023486F
:1031B000006800F00C0008285DD0A069022845D105
:1031C00000201F490866FFF74BF8054606E0FFF7A9
:1031D00047F8401B022801D9032035E61748083874
:1031E0000068C0F340600028F1D1D4E9070108432A
:1031F000616A40EA81110122A06AC2EB500041EAF3
:1032000000412C20005D41EA00600C49091F086064
:1032100001200B490866FFF723F8054606E0FFF793
:103220001FF8401B022801D903200DE60348083887
:103230000068C0F340600028F1D049E0083802403F
:1032400000004742800E47420070004000202149A4
:103250000866FFF705F8054606E0FFF701F8401B92
:10326000022801D90320EFE51B480068C0F3406045
:103270000028F2D12CE0A069012800D1E4E516482D
:10328000001D0668A069012820D006F48001E069CD
:1032900081421BD106F03F01206A814216D147F6D8
:1032A000C0703040616AB0EB811F0FD106F440312D
:1032B0000122A06AC2EB5000B1EB004F06D106F02C
:1032C00070612C20005DB1EB006F01D00120BBE5E7
:1032D0000020B9E5000047420038024010B504461E
:1032E0000CB9012010BD606A38B96068B0F5827F02
:1032F00000D105E00021E16102E00021216161616E
:103300000021A16294F8510028B9002084F85000EF
:10331000204600F047F8022084F851002068006839
:1033200020F0400021680860A08800F482702189A4
:1033300001F404410843A18901F400610843217CA0
:1033400001F002010843217D01F001010843218BB6
:1033500001F400710843217F01F038010843202166
:10336000095D01F080010843218D01F400510843FB
:10337000216808600421A06901EA104094F8241033
:1033800001F010010843216848602068C06920F4FA
:1033900000602168C86100206065012084F8510048
:1033A00000209FE710B586B00446142101A8FDF760
:1033B000F0F83C492068884271D100BF002000909D
:1033C0003948006840F48050374908600846006872
:1033D00000F48050009000BF00BF00BF00200090AC
:1033E00031481438006840F001002F491439086052
:1033F0000846006800F00100009000BF00BFE02018
:1034000001900220029001200390032004900520E7
:10341000059001A92548FEF71BFE254825490860AF
:103420004FF0C0604860002122488160C1604FF4C5
:1034300080610161002141618161C1614FF44031CE
:10344000016200214162FEF73BFC08B1FDF7F1FB90
:1034500000BF1848E064846300BF1548183016495F
:1034600008604FF0C060486040211348816000212F
:10347000C1604FF480610161002141618161C161DE
:103480004FF40031016200214162FEF719FC08B1DE
:10349000FDF7CFFB00BF0848A064846300BF06B0FF
:1034A00010BD0000003001404438024000000240DE
:1034B0004064024058090020B80900202DE9FF5F50
:1034C0000446884691461D460E9E0120029000202B
:1034D000019000BF94F85000012803D1022004B0ED
:1034E000BDE8F09F012084F8500000BFFEF7B8FE51
:1034F000074694F851B060680390AA46BBF1010FEB
:103500000BD00398B0F5827F04D1A06810B9BBF14D
:10351000040F02D002200190DBE0B8F1000F03D0CD
:10352000B9F1000F00D015B901200190D1E094F855
:103530005100042802D0052084F851000020606565
:10354000C4F83890E587A587C4F83080E586A5865D
:10355000206460642068006800F04000402805D0C6
:103560002068006840F0400021680860E068B0F51D
:10357000006F4AD1606810B1BAF1010F09D1206B18
:1035800000882168C860206B801C2063E08E401E8C
:10359000E08633E02068806800F00200022810D145
:1035A000E08E70B1029801280BD1206B0088216851
:1035B000C860206B801C2063E08E401EE0860020E7
:1035C00002902068806800F0010068B1E08F58B177
:1035D0002068C068A16B0880A06B801CA063E08F8E
:1035E000401EE08701200290FEF73AFEC01BB04269
:1035F00004D3701C10B1032001906AE0E08E002813
:10360000C8D1E08F0028C5D14AE0606810B1BAF196
:10361000010F09D1206B007821680873206B401CD2
:103620002063E08E401EE08634E02068806800F071
:103630000200022810D1E08E70B1029801280BD14F
:10364000206B007821680873206B401C2063E08E9B
:10365000401EE086002002902068806800F0010093
:1036600068B1E08F58B12068C068A16B0870A06B8A
:10367000401CA063E08F401EE08701200290FEF70F
:10368000EFFDC01BB04201D3701C00B916B9032076
:1036900001901EE0E08E0028C7D1E08F0028C4D141
:1036A0003A463146204601F0B9FC20B10120019094
:1036B000202060650DE0A06850B900BF0020009098
:1036C0002068C068009020688068009000BF00BF3C
:1036D00000BF012084F8510000BF002084F8500092
:1036E00000BF0198FBE67047704710B504460CB95F
:1036F000012010BD94F83D0028B9002084F83C005A
:10370000204600F025F8022084F83D00211D2068A5
:1037100001F022FE012084F8460000BF84F83E003C
:1037200001213F200155402001554120015500BF96
:1037300000BF012084F84200432001554420015578
:103740004520015500BF012084F83D000020D0E74E
:1037500070470000014691F83D00012801D001208A
:103760007047022081F83D000868C06840F0010001
:103770000B68D8601A4B086898421BD00868B0F1F3
:10378000804F17D0174B0868984213D0164B086823
:1037900098420FD0154B086898420BD0144B08681C
:1037A000984207D0134B0868984203D0124B086820
:1037B00098420CD10868806800F00702062A0CD0F5
:1037C0000868006840F001000B68186005E00868B0
:1037D000006840F001000B6818600020C0E700009E
:1037E000000001400004004000080040000C0040C0
:1037F000000401400040014000180040704710B52F
:10380000044620680069C0F34000D8B12068C06851
:10381000C0F34000B0B16FF00200216808610120E0
:1038200020772068806900F0030018B12046FFF778
:10383000E5FF05E0204600F0ADF8204600F0ABF8CB
:103840000020207720680069C0F38000D8B120688C
:10385000C068C0F38000B0B16FF004002168086157
:10386000022020772068806900F4407018B120465B
:10387000FFF7C4FF05E0204600F08CF8204600F07A
:103880008AF80020207720680069C0F3C000D8B112
:103890002068C068C0F3C000B0B16FF008002168B4
:1038A0000861042020772068C06900F0030018B187
:1038B0002046FFF7A3FF05E0204600F06BF8204606
:1038C00000F069F80020207720680069C0F300103C
:1038D000D8B12068C068C0F30010B0B16FF010001C
:1038E00021680861082020772068C06900F44070D2
:1038F00018B12046FFF782FF05E0204600F04AF8A5
:10390000204600F048F8002020772068006900F089
:10391000010058B12068C06800F0010030B16FF0BC
:10392000010021680861204600F036F8206800692F
:10393000C0F3C01058B12068C068C0F3C01030B1E7
:103940006FF08000216808612046FFF7CCFE2068F8
:103950000069C0F3801058B12068C068C0F38010BF
:1039600030B16FF0400021680861204600F01DF87A
:1039700020680069C0F3401058B12068C068C0F3E7
:10398000401030B16FF02000216808612046FFF739
:10399000ABFE10BD7047704710B504462068B0F10B
:1039A000804F01D1FEF7DAFF10BD704770477047B6
:1039B0002DE9F84F0446206805682068C66820682D
:1039C00047694FF00009CA4605F00F09B9F1000F29
:1039D0000AD105F0200038B106F0200020B12046C1
:1039E00001F076FDBDE8F88FB9F1000F7CD007F04B
:1039F000010018B906F49070002875D005F0010098
:103A000030B106F4807018B1206C40F001002064E1
:103A100005F0040030B107F0010018B1206C40F04F
:103A20000200206405F0020030B107F0010018B177
:103A3000206C40F00400206405F0080048B106F056
:103A4000200010B907F0010018B1206C40F0080008
:103A50002064206C002846D005F0200028B106F034
:103A6000200010B1204601F033FD20684069C0F30A
:103A7000801A206C00F0080010B9BAF1000F2DD0A8
:103A8000204601F0DFFC2068406900F0400040283B
:103A900020D100BF00BF2168143151E8001F21F080
:103AA00040002168143141E80002002AF3D100BF30
:103AB000A06B50B17548A16B0865A06BFDF7CBFFFB
:103AC00088B1A06B016D88470DE02046FFF76FFFBE
:103AD00009E009E02046FFF76AFF04E02046FFF70F
:103AE00066FF002020647DE7206B012876D105F079
:103AF0001000002872D006F010000028FAD000BF95
:103B000000200090206800680090206840680090C5
:103B100000BF00BF2068406900F0400040285ED12F
:103B2000A06B006840681FFA80F8B8F1000F54D00D
:103B3000A08D404551DDA4F82E80A06BC069B0F582
:103B4000807F43D000BF00BF21680C3151E8001FC7
:103B500021F4807021680C3141E80002002AF3D181
:103B600000BF00BF00BF2168143151E8001F21F0E1
:103B700001002168143141E80002002AF3D100BF9E
:103B800000BF00BF2168143151E8001F21F0400040
:103B90002168143141E80002002AF3D100BF20203F
:103BA00084F83E000020206300BF00BF21680C3174
:103BB00051E8001F21F0100021680C3141E800029B
:103BC000002AF3D100BFA06BFDF7EFFEA08DE28DC0
:103BD000801A81B22046FFF7E9FE03E740E0A08D9E
:103BE000E18D401A1FFA80F8E08DC0B3B8F1000FE4
:103BF00035D000BF00BF21680C3151E8001F21F40F
:103C0000907021680C3141E80002002AF3D100BF16
:103C100000BF00BF2168143151E8001F21F00100EE
:103C20002168143141E80002002AF3D100BF2020AE
:103C300084F83E000020206300BF00BF21680C31E3
:103C400051E8001F21F0100021680C3141E800020A
:103C5000002AF3D100BF41462046FFF7A7FEC1E688
:103C600005F0800030B106F0800018B1204601F068
:103C7000C1FDB7E605F0400030B106F0400018B1D4
:103C8000204601F015FCADE600BFABE6315400085C
:103C900010B504460CB9012010BDA06900B100E0C8
:103CA00000BF94F83D0028B9002084F83C0020466D
:103CB00000F028F8242084F83D002068C06820F433
:103CC00000502168C860204601F07EFC2068006931
:103CD00020F49040216808612068406920F02A00A3
:103CE000216848612068C06840F400502168C860BD
:103CF00000202064202084F83D0084F83E0000204D
:103D0000CAE7000010B586B00446142101A8FCF7EC
:103D100040FC30492068884259D100BF0020009003
:103D20002D48006840F010002B49086008460068E4
:103D300000F01000009000BF00BF00BF0020009006
:103D400025481438006840F0010023491439086000
:103D50000846006800F00100009000BF00BF4FF46B
:103D6000C060019002200290002003900320049084
:103D70000720059001A91948FEF76AF91848194962
:103D800008604FF0006048604021164881600021C3
:103D9000C1604FF480610161002141618161C161B5
:103DA0004FF44031016200214162FDF789FF08B103
:103DB000FCF73FFF00BF0B486063846300BF002235
:103DC00005212520FEF788FE2520FEF775FE06B0AA
:103DD00010BD0000001001404438024000000240C5
:103DE000B86402405C0A00207047704700BFFEE7DD
:103DF000014608684069C0F38020B0B16FF480606C
:103E00000A68506100200863202081F83D000020EE
:103E100081F83E00086C40F00400086400BF0020F8
:103E200081F83C0000BF012070470020FCE7000043
:103E30002DE9F84304460F4615469946DDE9088604
:103E40002068006840F4806021680860206800688D
:103E500040F4807021680860434600224FF0011151
:103E60002046009600F032F960B12068006800F446
:103E70008070B0F5807F02D14FF400702064032081
:103E8000BDE8F88307F0FE0021680861334642462A
:103E90003E49204600F05DF908B10120F0E700BF7F
:103EA00000200090206840690090206880690090A0
:103EB00000BF00BF32464146204600F0ECF950B149
:103EC000206C042805D12068006840F40070216847
:103ED00008600120D4E7B9F1010F03D1E8B22168ED
:103EE000086117E0C5F307202168086132464146A2
:103EF000204600F0D0F950B1206C042805D120688C
:103F0000006840F40070216808600120B8E7E8B25A
:103F10002168086132464146204600F0BCF950B1A4
:103F2000206C042805D12068006840F400702168E6
:103F300008600120A4E72068006840F480702168D0
:103F40000860434600224FF001112046009600F021
:103F5000BDF858B12068006800F48070B0F5807F2B
:103F600002D14FF400702064032089E7F8B240F0DA
:103F7000010021680861334642460449204600F0AA
:103F8000E8F808B101207BE7002079E70200010092
:103F90002DE9F8430446884615469946DDE9086749
:103FA0002068006840F48070216808603346002271
:103FB0004FF001112046009700F088F860B12068AA
:103FC000006800F48070B0F5807F02D14FF400707B
:103FD00020640320BDE8F88308F0FE002168086132
:103FE0003B4632462149204600F0B3F808B1012093
:103FF000F0E700BF00200090206840690090206832
:104000008069009000BF00BF3A463146204600F06C
:1040100042F950B1206C042805D12068006840F4B2
:104020000070216808600120D4E7B9F1010F03D1C5
:10403000E8B22168086117E0C5F30720216808612C
:104040003A463146204600F026F950B1206C04284B
:1040500005D12068006840F40070216808600120E4
:10406000B8E7E8B2216808610020B3E70200010068
:1040700070B504460D46164620E02046FFF7B8FE10
:1040800008B1012070BD681CC0B1FEF7E9F8801BC3
:10409000A84200D895B900202063202084F83D0074
:1040A000002084F83E00206C40F02000206400BF17
:1040B000002084F83C0000BF0120E3E7206840694D
:1040C000C0F380000028D8D00020DBE72DE9F041C4
:1040D00004460D4617461E46DDF818801CE0701C8D
:1040E000D0B1FEF7BDF8A0EB0800B04200D89EB9F1
:1040F00000202063202084F83D00002084F83E004A
:10410000206C40F02000206400BF002084F83C00B8
:1041100000BF0120BDE8F081C5F3074001280AD1A6
:1041200020684069A9B20840A9B2884201D10120A3
:104130000BE0002009E020688069A9B20840A9B21C
:10414000884201D1012000E00020B842C7D0002001
:10415000E0E72DE9F04104460D4616461F463DE0D6
:1041600020684069C0F38020E8B12068006840F40E
:104170000070216808606FF4806021684861002049
:104180002063202084F83D00002084F83E00206C4D
:1041900040F00400206400BF002084F83C0000BF11
:1041A0000120BDE8F081701CC0B1FEF759F8C01BBA
:1041B000B04200D896B900202063202084F83D004A
:1041C000002084F83E00206C40F02000206400BFF6
:1041D000002084F83C0000BF0120E2E7C5F307405F
:1041E00001280AD120684069A9B20840A9B28842D2
:1041F00001D101200BE0002009E020688069A9B20C
:104200000840A9B2884201D1012000E00020002826
:10421000A6D00020C5E770B504460D46164632E02C
:1042200020684069C0F30010A0B16FF01000216851
:10423000486100202063202084F83D00002084F89D
:104240003E00206C206400BF002084F83C0000BFCA
:10425000012070BDFEF704F8801BA84200D895B974
:1042600000202063202084F83D00002084F83E00D8
:10427000206C40F02000206400BF002084F83C0047
:1042800000BF0120E5E720684069C0F380100028E6
:10429000C6D00020DDE770B504460D46164620E086
:1042A0002046FFF7A5FD08B1012070BD681CC0B114
:1042B000FDF7D6FF801BA84200D895B900202063E7
:1042C000202084F83D00002084F83E00206C40F05F
:1042D0002000206400BF002084F83C0000BF0120C3
:1042E000E3E720684069C0F3C0100028D8D0002060
:1042F000DBE710B50C20FCF72AFA10BD072002F00E
:1043000065FD02E0642002F061FDFCF77CFA002804
:10431000F8D102E0642002F059FD02F04DFB0028C4
:10432000F8D1642002F052FD2E492F48FCF7EEFD33
:104330002E4AA2F10C01101DFCF780FA2C4A2B49E1
:104340000C392C48FCF7BAF910212B48C161FEF753
:10435000C5FF08B1FCF76DFC002002F073FD0446B8
:1043600004F0C0F82549086001202549087038E0AC
:1043700000BF4FF0FF31012003F084FA0128F8D18B
:104380002048007850B12048007838B915491648BF
:1043900002F05CFB13491448FCF70CFE1A48007845
:1043A00028B11A48007810B902F0FAFB15E00F4A5C
:1043B000A2F10C01101DFCF741FA0D4B0B4A0C3A0F
:1043C00002F110019FED120A0A48FCF78BF9114B1C
:1043D0001A1F111F074802F0E1F80B48007809493D
:1043E0000870C5E7380000202C0000209C01002048
:1043F000B4010020C00100200009002000000020BE
:10440000290000202B000020640000202A0000204A
:104410006F12833AD801002010B50E480E4908608B
:104420000320486000210C488160C1604FF41021D6
:1044300001614FF4001141610021017641768176DE
:10444000C17601774177FDF742F908B1FCF7F1FB3E
:1044500010BD0000006400408408002008B500BFC3
:10446000002000901248006840F480001049086065
:104470000846006800F48000009000BF00BF0022E2
:1044800005213A20FEF728FB3A20FEF715FB002213
:1044900005213B20FEF720FB3B20FEF70DFB002211
:1044A00005214620FEF718FB4620FEF705FB08BD58
:1044B0003038024000B595B01C2212490EA8FCF716
:1044C0002EF800210EA802F08EFC0F4908601C2275
:1044D0000C491C3107A8FCF722F8002107A802F0BC
:1044E00082FC0A4908601C22064938316846FCF7FC
:1044F00016F80021684602F076FC0549086015B000
:1045000000BD000034950008EC000020F000002001
:10451000E800002000B587B0142102A8FCF739F8A4
:1045200000BF002001904E48006840F080004C49D8
:1045300008600846006800F08000019000BF00BFDE
:1045400000BF002001900846006840F001000860AC
:104550000846006800F00100019000BF00BF00BFE6
:10456000002001900846006840F0040008600846FA
:10457000006800F00400019000BF00BF00BF0020F1
:1045800001900846006840F0020008600846006894
:1045900000F00200019000BF00BF0122102131484D
:1045A000FDF758FE0122C1212F48FDF753FE0122DD
:1045B00011022E48FDF74EFE1020029001200390BC
:1045C00004900220059002A92648FDF741FDB02085
:1045D00002904FF4041003900120049002A9234894
:1045E000FDF736FD01200290039004900220059013
:1045F00002A91D48FDF72CFD4FF4807002900120A8
:1046000003900490059002A91848FDF721FD402071
:1046100002900120039004900320059002A9124803
:10462000FDF716FD802002901120039001200490D8
:104630000320059002A90C48FDF70AFD0022052180
:104640000A20FEF749FA0A20FEF736FA0022052171
:104650001720FEF741FA1720FEF72EFA07B000BD2B
:1046600030380240000002400004024000080240CE
:1046700010B50B480B4908600B48486000210948F9
:104680008160C1604FF4804101610021416181611D
:10469000C1610162FDF7EAFD08B1FCF7CAFA10BD7D
:1046A000005C0040AC080020801A060010B50F48DE
:1046B0000F4908604FF48270486000210C48816007
:1046C000C1600221016101214161490281613821FA
:1046D000C16100210162416281620A21C162FEF76B
:1046E000FDFD08B1FCF7A5FA10BD00000030014047
:1046F0000009002010B50B480B4908604FF4E13069
:104700004860002108488160C16001610C2141615D
:1047100000218161C161FFF7BBFA08B1FCF789FA9A
:1047200010BD000000100140180A002010B54FF421
:10473000805008490860FFF7DCFD07490860074919
:1047400008609FED070A074880ED000A002006492F
:10475000086010BDC8000020D4000020D000002058
:1047600000000000CC000020D800002010B52DED86
:10477000108B98B00446B0EE40AAF0EE60AAB0EEFE
:1047800041BAF0EE61CAF0EE42BAB0EE62CAF0EEA3
:10479000439AB0EE638AF0EE448AF5EEC09AF1EEE9
:1047A00010FA1CD1B5EEC08AF1EE10FA17D1F5EE71
:1047B000C08AF1EE10FA12D1F0EE4C2AB0EE6B2A5C
:1047C000F0EE6C1AB0EE4B1AF0EE6A0AB0EE4A0A3E
:1047D000204600F0A1FA18B0BDEC108B10BDF5EE2C
:1047E000C0CAF1EE10FA09D1F5EEC0BAF1EE10FA36
:1047F00004D1B5EEC0CAF1EE10FA7CD06CEEAC0A72
:104800004BEEAB0A4CEE0C0AB0EE600A02F05EF81A
:10481000B0EE409A2CEE890AF0EE40CA2BEE890ADF
:10482000F0EE40BA2CEE090AB0EE40CA69EEA90AD1
:1048300048EE080A48EEA80AB0EE600A02F046F810
:10484000B0EE409A29EE890AF0EE409A28EE090A65
:10485000B0EE408A28EE890AF0EE408A94ED000A14
:1048600020EE000A8DED170A94ED000AD4ED010A3E
:1048700020EE20EA94ED000AD4ED020A20EE20DAC0
:1048800094ED000AD4ED030A20EE200A8DED160AFD
:1048900094ED010A20EE000A8DED150A94ED010A4F
:1048A000D4ED020A20EE200A8DED140A94ED010ADF
:1048B000D4ED030A60EE20DA94ED020A60EE00EA1D
:1048C00094ED020AD4ED030A20EE20FA94ED030AD7
:1048D00060EE00FAB6EE000A30EE6E0A30EE6F0AB5
:1048E00020EE291A9DED140ADDED160A70EE600A1D
:1048F000B0EE410A00E060E108EE200A7DEE8D0A8C
:1049000008EEA00AF0EE000A20EE200A8DED130A50
:104910009DED140ADDED160A30EE200A60EE290A3C
:104920009DED150AB6EE001A31EE400A30EE6F1A10
:10493000B0EE600A08EE010A7FEE4E0A08EEA00A09
:10494000F0EE000A20EE200A8DED120A9DED130A0A
:1049500060EE000A9DED120A40EE000A10EE901A79
:10496000084604F05DFDCDE900019DED000B01F06E
:10497000A1F98DED020B9DED020B51EC100B03F034
:10498000D3FF11903DEECD0A20EE290A7FEE0E0AEC
:1049900008EE200ADDED150AB6EE001A71EE600A87
:1049A00070EEEE0A08EEA00AF0EE000A20EE200AF1
:1049B0008DED100A3DEECD0A8DED0F0A3EEE0F0A89
:1049C0008DED0E0A9DED170AF6EE000A30EE600A34
:1049D00030EE2F0A8DED0D0AB6EE000A30EE6E0AAB
:1049E00070EE6F0A9DED110A20EE800A3DEECD1AA1
:1049F000DDED100A00EE810A8DED0C0A9DED140A22
:104A0000DDED160A70EE600A9DED110A20EE800AB7
:104A10003EEE0F1ADDED100A00EE810A8DED0B0A55
:104A20007DEE2D0A9DED110A20EE801A9DED150AEE
:104A3000F6EE000A30EEC00A70EE6E1ADDED100AD6
:104A4000B0EE410A00EEA10A8DED0A0A9DED0D0AB5
:104A50006BEE800A9DED0E0A4CEE400A9DED0A0AAF
:104A600028EE001A9DED0B0A08EEC01A30EE810AFE
:104A70008DED090A9DED0F0A6CEE000A9DED0D0A01
:104A80004CEEC00A9DED0C0A28EE801A9DED0A0A34
:104A900009EEC01A30EE810A8DED080A9DED0E0A6E
:104AA0006CEE800A9DED0F0A4BEEC00A9DED0B0ADD
:104AB00029EE801A9DED0C0A08EE401A30EE810AAC
:104AC0008DED070A8C4890ED000AB5EEC00AF1EEB4
:104AD00010FA44DDD0ED000A9DED090A60EE800A6F
:104AE000864890ED000A9FED861A00EE810A80ED5F
:104AF000000A8148D0ED000A9DED080A60EE800AA8
:104B0000804890ED000A9FED7E1A00EE810A80ED4C
:104B1000000A7948D0ED000A9DED070A60EE800A90
:104B2000794890ED000A9FED761A00EE810A80ED3B
:104B3000000A724890ED000A3AEE000AB0EE40AA70
:104B4000704890ED000A3AEE800AF0EE40AA6E48F6
:104B500090ED000A3BEE000AB0EE40BA0EE09FED89
:104B60006B0A664880ED000A9FED680A654880ED93
:104B7000000A9FED660A644880ED000A644890EDE3
:104B8000001A9DED090AF0EE4A0A41EE000AB0EE65
:104B900060AA90ED001A9DED080AF0EE6A0A41EE57
:104BA000000AF0EE60AA90ED001A9DED070AF0EE03
:104BB0004B0A41EE000AB0EE60BA9FED560A2AEEAB
:104BC000000AB0EE40AA9FED530A2AEE800AF0EEEA
:104BD00040AA9FED500A2BEE000AB0EE40BA94EDC9
:104BE000000A8DED060A94ED010A8DED050A94ED9B
:104BF000020A8DED040A9DED050AB1EE400A60EE51
:104C00000A0A9DED040A40EE6A0A94ED030A40EE9A
:104C10004B0A94ED000A30EE800A84ED000A9DED07
:104C2000060A60EE0A0A9DED040A40EE0B0A94EDB6
:104C3000030A40EE6A0A94ED010A30EE800A84ED20
:104C4000010A9DED060A60EE2A0A9DED050A40EE76
:104C50004B0A94ED030A40EE0A0A94ED020A30EE84
:104C6000800A84ED020A9DED060A20EE0B0ADDEDB6
:104C7000050A00EEAA0ADDED040A00EECA0AD4ED28
:104C8000030A30EE200A84ED030AD4ED000A60EE38
:104C9000A00A94ED011AD4ED011A41EE210A94ED17
:104CA000021AD4ED021A41EE210A94ED031AD4ED52
:104CB000031A41EE210AB0EE600A01F007FEB0EEE1
:104CC000409A94ED000A20EE090A84ED000A94ED62
:104CD000010A20EE090A84ED010A94ED020A20EE91
:104CE000090A84ED020A94ED030A20EE090A84ED14
:104CF000030A00BF6FE500006C0000207000002078
:104D00006F12833A74000020780000200000000039
:104D1000680000206F12033A00B52DED068B0246A5
:104D2000B0EE403AF0EE603AB0EE414AF0EE615A31
:104D3000F0EE424AB0EE625AF5EEC05AF1EE10FAC9
:104D400009D1F5EEC04AF1EE10FA04D1B5EEC05A21
:104D5000F1EE10FA7ED065EEA50A44EEA40A45EE07
:104D6000050AB0EE600A01F0B1FDF0EE402A25EE32
:104D7000A20AF0EE405A24EEA20AF0EE404A25EED6
:104D8000220AB0EE405A92ED010AD2ED030A20EE5B
:104D9000200AD2ED000A92ED021AF0EE408A40EEAF
:104DA000C18A92ED000AD2ED010A20EE200AD2ED6E
:104DB000020A92ED031AF0EE409A40EE819AD2ED8B
:104DC000000A92ED001AB6EE000A10EE810AD2ED4A
:104DD000030A92ED031AB0EE409A00EE819A24EE97
:104DE000890AF0EE407A45EE697A25EE280AB0EE9F
:104DF00040AA05EEC9AA25EEA90AB0EE408A04EE43
:104E0000E88A7C4890ED000AB5EEC00AF1EE10FA8F
:104E100040DD90ED000A60EE270A774890ED000A29
:104E20009FED761A00EE810A80ED000A714890ED40
:104E3000000A60EE0A0A724890ED000A9FED6F1AB0
:104E400000EE810A80ED000A6A4890ED000A60EEEB
:104E5000080A00E046E06B4890ED000A9FED671AF3
:104E600000EE810A80ED000A634890ED000A33EEFF
:104E7000000AB0EE403A624890ED000A33EE800A34
:104E8000F0EE403A5F4890ED000A34EE000AB0EED2
:104E9000404A0EE09FED5C0A574880ED000A9FED06
:104EA0005A0A574880ED000A9FED570A554880ED91
:104EB000000A5648D0ED000AB0EE430A00EEA70AF9
:104EC000B0EE403AD0ED000AB0EE630A00EE8A0A76
:104ED000F0EE403AD0ED000AB0EE440A00EE880A47
:104EE000B0EE404A9FED4A0A23EE000AB0EE403A87
:104EF0009FED470A23EE800AF0EE403A9FED440A08
:104F000024EE000AB0EE404A92ED006AD2ED016A4A
:104F100092ED027AB1EE660A20EE030A07EE630A0A
:104F2000D2ED030A00EEC40AD2ED000A30EE200AE8
:104F300082ED000A26EE030A07EE040AD2ED030A08
:104F400000EEE30AD2ED010A30EE200A82ED010AFA
:104F500026EE230A06EEC40AD2ED030A00EE830A07
:104F6000D2ED020A30EE200A82ED020A26EE040A91
:104F700006EEA30A07EE430AD2ED030A30EE200A3A
:104F800082ED030AD2ED000A60EEA00A92ED011A4A
:104F9000D2ED011A41EE210A92ED021AD2ED021A67
:104FA00041EE210A92ED031AD2ED031A41EE210AD5
:104FB000B0EE600A01F08AFCF0EE402A92ED000AA1
:104FC00020EE220A82ED000A92ED010A20EE220A6A
:104FD00082ED010A92ED020A20EE220A82ED020A17
:104FE00092ED030A20EE220A82ED030ABDEC068B45
:104FF00000BD00006C000020700000206F12833A9A
:1050000074000020780000200000000068000020EC
:105010006F12033A00BFFEE700BFFEE77CB504460F
:105020000D461646164800681821B0FBF1F01549E8
:10503000B0FBF1F04FF47A71484301906068B0F52D
:10504000827F0DD12B46002280212046009600F061
:105050001BF898B1606D40F02000606503207CBDB6
:1050600000BF019800B908E00198401E0190206837
:105070008068C0F3C0100028F3D100BF0020EEE725
:105080000001002040420F002DE9F84F04460D4674
:1050900090461E46DDF82890FDF7E2F8A0EB0900E7
:1050A000371AFDF7DDF882462C480068C0F3CB3094
:1050B0007843009045E0701C002842D0FDF7D0F8FE
:1050C000A0EB0A00B84200D2A7BB2068406820F0DD
:1050D000E000216848606068B0F5827F0DD1A0686B
:1050E000B0F5004F03D0A068B0F5806F05D12068FF
:1050F000006820F0400021680860A06AB0F5005FF9
:105100000DD100BF2068006820F4005021680860BD
:105110002068006840F400502168086000BF01204A
:1051200084F8510000BF002084F8500000BF032025
:10513000BDE8F88FFFE7009800B900270098401EEF
:105140000090206880682840A84201D1012000E03A
:1051500000204045AFD10020EAE700000001002018
:105160002DED048BFFF7E2FAFBF7A0FC2F48FBF7CD
:10517000BBFE00BF2E4890ED011AF0EE410A90ED03
:10518000001AB0EE410A2B48FBF74EFF294A0721CF
:105190002948FBF793FC2648D0ED020AB0EE600ADE
:1051A00024482649D1ED000AFBF73EFF214A082199
:1051B0002148FBF783FC2248007828B101F046F92A
:1051C0001A4880ED000A1DE001F040F91748D0EDC3
:1051D000000A30EE600A10EE104A204604F020F972
:1051E00041EC190BB0EE490AF0EE690A00F058FDE7
:1051F000B0EE408AF0EE608A51EC180B03F094FB9D
:105200000E4908600F48007838B10D48007820B981
:10521000064890ED000AFBF79FFE0948007809490F
:105220000870012001F0D2FDA4E70000E00000209A
:10523000D00100204C0000208408002048000020FD
:10524000650000205400002010B500BF012001F0CF
:10525000BDFDFBE710B5502080F31188BFF34F8FE1
:10526000BFF36F8F03F098F918B104494FF08050E5
:105270000860002080F3118810BD000004ED00E0FC
:1052800000B593B0302107A8FBF783F9142102A8D9
:10529000FBF77FF900BF002001902448006840F030
:1052A0008050224908600846006800F08050019054
:1052B00000BF00BF00BF002001901D48006840F4FF
:1052C00080401B4908600846006800F48040019057
:1052D00000BF00BF012007900004089002200D903D
:1052E00041050E9104210F91A821109102211191E5
:1052F0000421129107A8FDF7A3FD08B1FBF799FC63
:105300000F20029002200390002004904FF4A05040
:1053100005904FF480500690052102A8FDF72EFC61
:1053200008B1FBF786FC13B000BD00004038024016
:10533000007000400348006840F4700001490860B4
:105340007047000088ED00E010B50248FEF757FAFC
:1053500010BD0000BC0A002010B50268294B98421D
:105360000ED0B0F1804F0BD0274B984208D0274B7E
:10537000984205D0264B984202D0264B984203D142
:1053800022F070024B681A431E4B984220D0B0F1B5
:10539000804F1DD01C4B98421AD01C4B984217D0FE
:1053A0001B4B984214D01B4B984211D01A4B984279
:1053B0000ED01A4B98420BD0194B984208D0194B7B
:1053C000984205D0184B984202D0184B984203D10E
:1053D00022F44072CB681A4322F080034C6943EAFE
:1053E000040202608B68C3620B688362054B9842BB
:1053F00002D0084B984201D10B690363012343613A
:1054000010BD000000000140000400400008004002
:10541000000C0040000401400040014000440140F5
:105420000048014000180040001C004000200040DF
:1054300070B50546AC6B0020E085E0842046FEF7A1
:10544000B6FA70BD00BF00BF02680C3252E8002FF0
:1054500022F4907102680C3242E80013002BF3D161
:1054600000BF00BF00BF0268143252E8002F22F0D4
:1054700001010268143242E80013002BF3D100BF8F
:10548000016B01290ED100BF00BF02680C3252E847
:10549000002F22F0100102680C3242E80013002BAA
:1054A000F3D100BF202180F83E1000210163704736
:1054B00010B504462068C06820F040002168C8602C
:1054C000202084F83D002046FEF78FFC002010BD10
:1054D000F8B5044694F83E00222873D1A068B0F5D0
:1054E000805F0CD1206950B90025A66A2068406809
:1054F000C0F308003080A06A801CA06215E0A56A95
:105500000026A068B0F5805F03D0A06828B92069A4
:1055100018B920684068287004E02068406800F0EE
:105520007F002870A06A401CA062E08D401E80B2FF
:10553000E085002844D12068C06820F02000216860
:10554000C8602068C06820F480702168C860206846
:10555000406920F0010021684861202084F83E0065
:10556000206B012826D10020206300BF00BF2168E6
:105570000C3151E8001F21F0100021680C3141E886
:105580000002002AF3D100BF2068006800F010007C
:1055900010280AD100BF0020009020680068009009
:1055A00020684068009000BF00BFA18D2046FEF734
:1055B000FDF902E02046FEF717FC0020F8BD01E0EF
:1055C0000020FBE70220F9E72DE9F84F04462068A8
:1055D000006920F44050E1680843216808612169AE
:1055E000A068084361690843E169084300902068A6
:1055F000C06849F20C618843009908432168C8607B
:105600002068406920F44070A1690843216848611E
:1056100076492068884203D075492068884203D1C2
:10562000FDF7A6FB814602E0FDF792FB8146E069AB
:10563000B0F5004F6CD102206168A0FB0150034619
:105640001920A9FB007001462A463846FAF78CFE5D
:105650006421B0FBF1F04FEA001A02206168A0FB60
:1056600001510B461920A9FB00712A463846FAF76A
:105670007BFE834602206168A0FB0150034619208F
:10568000A9FB00712A463846FAF76EFE6421B0FB8A
:10569000F1F000EBC00101EB0010ABEB8000322118
:1056A00001EBC0006421B0FBF1F000F0F8000AEB60
:1056B000400A02206168A0FB015003461920A9FBA3
:1056C000007001462A463846FAF74EFE834602200D
:1056D0006168A0FB015003461920A9FB00712A460E
:1056E0003846FAF741FE6421B0FBF1F000EBC0014F
:1056F00001EB0010ABEB8000322101EBC000642114
:10570000B0FBF1F000F007005044216888606AE0C7
:1057100004206168A0FB015003461920A9FB00701A
:1057200001462A463846FAF71FFE82460420616881
:10573000A0FB015003461920A9FB007001462A4630
:105740003846FAF711FE6421B0FBF1F000EBC0011E
:1057500001EB0010AAEB8000322101EB0010642164
:10576000B0FBF1F000F0F00A04206168A0FB0170CA
:1057700003461920A9FB00513A462846FAF7F4FDE2
:105780006421B0FBF1F00AEB001A04206168A0FB71
:1057900001510B461920A9FB00712A463846FAF739
:1057A000E3FD834604206168A0FB015003461920F5
:1057B000A9FB007001462A463846FAF7D5FD642158
:1057C000B0FBF1F000EBC00101EB0010ABEB80008F
:1057D000322101EB00106421B0FBF1F000F00F006A
:1057E000504421688860BDE8F88F00000010014037
:1057F00000140140014691F83D00212828D1886815
:10580000B0F5805F0BD1086948B90A6A1088C0F307
:1058100008000B685860086A801C086205E00B6A83
:10582000581C086218780B685860C88C401E80B2FB
:10583000C88458B90868C06820F080000B68D86038
:105840000868C06840F040000B68D86000207047CE
:105850000220FCE710B50248FEF7AAF810BD0000D0
:10586000180A002000BFFEE74100080218BF04200C
:105870000A0E18BF40F001004FF07F4232EA0101EA
:1058800008BF40F00200012808BF05207047000053
:1058900002480068C0F30220704700000CED00E0F1
:1058A00010B5002804DB0A07130E054A135406E05E
:1058B0000A07140E034A00F00F031B1FD45410BD37
:1058C00000E400E018ED00E010B54FF00E402DEDC3
:1058D000028BB0EE408A18EE104A00EB4400B0F1A3
:1058E000506F4AD84FF0FC40B0EB440F22D2B0EEDC
:1058F000C80AF7EE000A30EEC00AF6EE000A60EEC3
:10590000208A18EE900A01F09DFF01EE100A14F0B3
:10591000004F1DBFDFED2D0A9FED2D0AB1EE411A9C
:10592000DFED2C0A08BF9FED2C0AF8EE001A21EEDD
:10593000218A05E0DFED290A68EE088AB0EE600AE8
:105940009FED271ADFED271A30EE080A48EE811A7C
:105950009FED251A08EEA11ADFED241A48EE811AF0
:105960009FED231A08EEA11A68EE281ABDEC028BEF
:1059700001EE810A30EE200A10BD4FF0E440B0EB9A
:10598000440F0CD918EE100AFFF76EFF042808BF69
:1059900000F0DCF9B0EE480ABDEC028B10BD4FF010
:1059A0007F40B0EB440F07D2B0EE480ABDEC028B4B
:1059B000BDE8104000F0BBB90120FAF719FEBDECBC
:1059C000028BBDE8104000F0B9B900000000C9BF6B
:1059D00022AAFDB90000C93F22AAFD39000000003B
:1059E00024FE1C3DC78AD83C1E67383D1B93993D59
:1059F000AFAA2A3E70B54FF068422DED048BF0EE51
:105A0000408A18EE900AB0EE608A18EE101A02EB87
:105A10004003B3F1654F3CBF02EB4102B2F1654F69
:105A20007DD200BFC0F3C753C1F3C7529A1A1B2AD5
:105A300009DD10F0004F14BF9FED830A9FED830A2C
:105A4000BDEC048B70BD12F11A0F36DA11F0004F65
:105A500009D010F0004F0CBF9FED7D0A9FED7D0A2D
:105A6000BDEC048B70BD88EE889A19EE100AFFF722
:105A7000FBFE042808BF00F069F918EE900AFFF752
:105A8000F3FE054618EE100AFFF7EEFE044619EE87
:105A9000100AFFF7E9FE042D18BF052D08D1042CCC
:105AA00018BF052C04D1002804BF0220FAF7A0FD7E
:105AB000B0EE490ABDEC048B70BD4200B2EB410F61
:105AC0003AD910F0004F19BFDFED630A9FED630A6A
:105AD000DFED630A9FED630AB0EE481A0A46B1EEA5
